:10000000F03F0000110000100000000000000000A0
:100010007CB501F010FC042029214906486000BF8E
:1000200000BF00BF00BF0D48406800900020019055
:100030000A4D002405E0A0002858A100019A505064
:10004000641C202CF7D3002100984860009880475A
:1000500000BF00BF00BF00BF7CBD00000004001057
:100060000000000000000000000000000000000090
:100070000000000000000000000000000000000080
:100080000000000000000000000000000000000070
:100090000000000000000000000000000000000060
:1002C000000300000000000000000000000000002B
:1002D0000003000000B900000003000000B90000A6
:1002E00000C000000004000001000200070005003B
:1002F00014114C4554560000440000000100010058
:1003000000000000000000000000000000000000ED
:1003100000000000000000000000000000000000DD
:1003200000000000000000000000000000000000CD
:1003300000000000000000000000000000000000BD
:1003400000000000000000000000000000000000AD
:10035000000000000000000000000000000000009D
:10036000000000000000000000000000000000008D
:10037000000000000000000000000000000000007D
:10038000000000000000000000000000000000006D
:10039000000000000000000000000000000000005D
:1003A000000000000000000000000000000000004D
:1003B000000000000000000000000000000000003D
:1003C000000000000000000000000000000000002D
:1003D000000000000000000000000000000000001D
:1003E000000000000000000000000000000000000D
:1003F00000000000000000000000000000000000FD
:10040000F03F00005918001000000000000000003C
:1004100000000000000000000000000000000000DC
:1004200000000000000000000000000000000000CC
:100430000000000000000000E10500105F3800101F
:10044000B3140010351800103518001035180010BE
:1004500035180010B71B00103518001035180010A3
:100460003518001035180010351800103518001018
:1004700035180010330B0010351800103518001017
:1004800035180010351800103518001035180010F8
:1004900035180010351800103518001035180010E8
:1004A00035180010351800103518001035180010D8
:1004B00035180010351800103518001035180010C8
:1004C00003B40148019001BDC100000000F002F832
:1004D00000F03EF80CA030C8083824182D18A246A9
:1004E000671EAB4654465D46AC4201D100F030F881
:1004F0007E460F3E0FCCB6460126334200D0FB1A93
:10050000A246AB4633431847A44C0000F44C00000D
:10051000103A02D378C878C1FAD8520701D330C84C
:1005200030C101D504680C6070470000002300242E
:1005300000250026103A01D378C1FBD8520700D31A
:1005400030C100D50B6070471FB51FBD10B510BD81
:1005500004F096FA1146FFF7F7FF01F08DF904F069
:10056000AEFA03B4FFF7F2FF03BC01F0ACF90000F0
:10057000FCB40022002300240025002600270629C1
:1005800002D4FCC00639FAE7002902D004C00139C0
:10059000FAE7FCBC7047000002B472B60178013182
:1005A000017062B60139080002BC704702B472B62D
:1005B00001780139017062B6080002BC7047000082
:1005C00062B6704772B670471C3880F3098870476E
:1005D000014802490160704704ED00E0000000108E
:1005E000114B1968114A1268914216D0EFF3098035
:1005F00020380860F0C044464D4656465F46F0C07D
:100600001A6010681030F0C8A046A946B246BB4632
:100610002038F0C8103080F30988054B002018708E
:1006200004204042004700007405000070050000EF
:100630006105000070B505460C46164602E00FCC79
:100640000FC5103E102EFAD2082E02D303CC03C5DC
:10065000083E042E07D301CC01C5361F03E02178E4
:100660002970641C6D1C761EF9D270BD02460020F4
:100670000121890700E089089142FCD808E043186D
:10068000934203D8121A521A4B00181840088908CE
:100690000029F4D17047F0B59446002285B000924D
:1006A000802833D1C5055C00002931D0E048E14EF7
:1006B0000078367887194640F607F60FBE1976009F
:1006C000092929D00A2921D1400040190090684603
:1006D00006810098002819D0D7482421418047215D
:1006E0004260017008214170D3486946083001908A
:1006F000022088734C814B73604608730021684662
:1007000000F0CCFF0021012000F010FE05B0F0BD8C
:10071000684600950481DFE7684600950681DBE7BF
:10072000FFB50D980B9EC10740070A9D0C9C002940
:1007300041D0800F39D000201DE0480000990F5AA9
:100740000199095EC910791A175E09B2BC460D9F5E
:10075000614507DDBF0706E067466F4371437918BF
:10076000214102E07F07002FF6DA11526746C91BCC
:1007700019527046401C8646014609988645DCDBC6
:10078000FFBD480000990F5A0199095EC910791AF6
:100790000FB2115E77438E466943C9192141115248
:1007A0007746C91B19526046401C84460146099889
:1007B0008445E6DBFFBD800F39D000201DE04800F6
:1007C0000199095ECF100099095A791A175E09B28A
:1007D000BC460D9F614507DDBF0706E067466F43D6
:1007E00071437918214102E07F07002FF6DA115298
:1007F0006746C91B19527046401C86460146099837
:100800008645DCDBFFBD48000199095ECF100099E9
:10081000095A791A0FB2115E77438E466943C91996
:10082000214111527746C91B19526046401C84462B
:10083000014609988445E6DBFFBDFFB581B00C9801
:100840000B9D84460E980D9CC1074007002948D097
:10085000800F28D000201DE0019940000E5A009919
:100860008F000299C9590E9FC910711A165E09B2FC
:10087000B646B14213DDBF0712E0115206E06746EB
:100880006E4379437118214111527646891B1952E2
:100890000098401C00900A998842DDDB36E77F070C
:1008A000002FECDAE9E7002717E078000199864687
:1008B000095A0298BE008659F610881B06B2704687
:1008C000115E60460091464369438E192641704689
:1008D00016520099711A19527F1C0A988742E4DB5C
:1008E00014E7800F28D000201DE0810002980E9FA1
:1008F00040580199C61000984000095A711A165EB6
:1009000009B2B646B14213DDBF0712E0115206E04C
:1009100067466E4379437118214111527646891B0F
:1009200019520098401C00900A998842DDDBEDE6E0
:100930007F07002FECDAE9E7002717E00298B900FB
:1009400040580199C6107800095A8646701A01B2BB
:100950007046165E6046009641436E437118214111
:1009600070461152009E891B19527F1C0A988742BB
:10097000E4DBCBE610B55B00304C002A04D0CA079C
:10098000D20F5218D21800E05A182270491E617016
:10099000401EA0702949D0B2C243C91C0A7000226F
:1009A000D2434A70421E8A704242CA7001220871C4
:1009B000131A4B718A71401CC87110BDF8B51F4CD9
:1009C0000E4615460746217803F036FF3070217831
:1009D0004843381A2870F8BD002808D0174A937881
:1009E000984204D0002902D05078814201D10120E0
:1009F00070470020704710B50022104B002802D02D
:100A00009C78A04200D10122002902D0587881426E
:100A100000D1521C022A01D0002010BD012010BDBF
:100A2000002101E000BF491C8142FBD37047000058
:100A300091050000EC4B0010005D00400005000037
:100A400010B564228030C2810282002901D000F0FA
:100A500003FB10BD10B53D4C0021207802F08AFA4E
:100A6000002802D0002001F08FF8207802F032FB3D
:100A7000012010BD10B5112806D0122803D1344929
:100A8000082000F053FC10BD31490420F9E7C006EE
:100A900001D5012070470020704700F0D5FA0121F0
:100AA000017000224270841C01720220E0712172E8
:100AB00062721146104602F077F92449087001214C
:100AC0002348FFF7BDFF234D0C20697800F01CFB85
:100AD0000021012000F02AFC1D4800F03FF8287892
:100AE000FFF7D5FF002818D16878002815D01848DE
:100AF00002F05CF802F093FF01F054FD14488030DE
:100B00008289C08901B210B20F46064601F03FFE4D
:100B100026806780A08002F094FF69780B2000F0A7
:100B2000F3FA2878FFF7A6FFFFF794FF0028FBD021
:100B3000D2E710B502F0BCF80448007802F0F8FAE9
:100B400005490F20C86202F0B8F810BD0B0500007F
:100B5000A8050000040200008000005210B500F05B
:100B600002F8012010BD10B50446803420891649D2
:100B7000401806D00821154A01281BD002281FD191
:100B800004E07D20000101F0FDFF19E060890628E6
:100B900004D0072806D0082808D011E0117000F012
:100BA000DEF80DE0117000F043F909E0117000F07B
:100BB000C9F905E06089012802D1117000F03CF804
:100BC00000202081012010BDFEF7FFFF040200007D
:100BD00070B5049C5A43002C0BD0002306E05C0047
:100BE000065F0D5FAE4200DD05535B1C9342F6DBF2
:100BF00070BD002306E05C00065F0D5FAE4200DAC8
:100C000005535B1C9342F6DB70BDF0B50546002032
:100C10005A438C4603460CE05F006146EC5FCE5FB2
:100C2000A11B00D5311B09B2814200DD0846E95302
:100C30005B1C9342F0DBF0BDF0B587B0F948F84C8F
:100C40000390F848F64A803402940492083824212C
:100C5000418000214160472101700821F24F41701D
:100C60003878EF4D800001460190803D104603F03A
:100C7000D5FD2846019903F0D1FD2046019903F0E6
:100C8000CDFD0321052000F03FFAFF20F530FFF7EE
:100C9000C7FE00200690E54C207802F01BFA02F017
:100CA00057FE6421207802F065F9002626E0002036
:100CB0007400285317E0DE493B7809783A784B40B6
:100CC000DB078A18DB0FD218CB07DB0F424359181A
:100CD00051184A000121890751182A5B095B5118F4
:100CE000401C2953C0B2D34909788842E3D3D14983
:100CF000285F097803F0A0FD2853761C38788642D7
:100D0000D5DB06980A280DD33B78012229460498A2
:100D1000FFF77BFF002000903B78012204990298A6
:100D2000FFF756FF2946019A049803F011FDFFF7DB
:100D300091FE0698401C06903C28ACD30321062067
:100D400000F0E2F9019A0299039803F001FDBA4913
:100D500001200873002100F0E9FA07B0F0BDF0B5FA
:100D600087B0B0490491AF49B448059008392422AE
:100D70004A80002747224F600A700822AA4E4A7014
:100D80003178890003F04CFD0321052000F0BCF907
:100D9000FF20F530FFF744FE0025A44C207802F038
:100DA00099F902F0D5FD6421207802F0E3F80A2DCC
:100DB00021D3002419E09E483278007831784240EF
:100DC000D2074118D20F8918C207D20F10186143F9
:100DD0000818410001208007009708183378012285
:100DE000059901F013FF641CE4B292480078844234
:100DF000E1D3FFF72FFE6D1C3C2DCED3032106203F
:100E000000F082F93078019001248A480297039714
:100E1000009402783220424302230499059801F09D
:100E20000BFF854800210473012000F07FFA94E74E
:100E3000F0B585B07B4804907A4824210838418079
:100E400000214160472101700821417076487B4FA5
:100E50000078734E8400803E2146384603F0E0FC63
:100E60002146304603F0DCFC0321052000F04CF95C
:100E7000FF20F530FFF7D4FD0025E80703D002F08E
:100E800050FD019602E002F03FFD0197674C20788B
:100E900002F020F902F05CFD6421207802F06AF88B
:100EA0000A2D23D300241BE061485F4900780B78AA
:100EB0000A784340DB078218DB0FD218C307DB0F29
:100EC00062431818101842000120800710180022F1
:100ED00000920B780122019901F098FE641CE4B2A3
:100EE000544800788442DFD3FFF7B4FD6D1C3C2DDD
:100EF000C3D30321062000F007F9514A0020115CFA
:100F0000401C89007358C0B27B500728F7D346496C
:100F10000020097802900390012401914548009433
:100F200002781920424302233846049901F084FED6
:100F300002F0CCFC404800210473012000F0F6F9D7
:100F400005B0F0BDF0B587B03649049135493B484E
:100F50000590083924224A80002747224F600A70F2
:100F60000822314E4A703178890003F059FC032180
:100F7000052000F0C9F8FF20F530FFF751FD02F021
:100F8000DDFC0025294C207802F0A4F802F0E0FCFA
:100F90006421207801F0EEFF0A2D21D3002419E00E
:100FA00023483278007831784240D2074118D20F76
:100FB0008918C207D20F1018614308184100012098
:100FC00080070097081833780122059901F01EFE6A
:100FD000641CE4B2174800788442E1D3FFF73AFD7D
:100FE0006D1C3C2DCED30321062000F08DF8307807
:100FF000019001240F480297039700940278322051
:10100000424302230499059801F016FE02F05EFCAB
:10101000094800210473012000F088F99DE60000D2
:10102000D0270040085D0040EC4B0010590500003F
:1010300091050000ED4B001004020000D026004096
:10104000744B00101E4870471D48801E70471C4995
:10105000002072310863704710B51A4914230A78CA
:101060001749002072310A70174A12784A7001221B
:101070008A820222CA8207220A8305224A830A46FA
:10108000203293701123D37044228A840F4A0C18A3
:10109000131820339B7C401C23770628F7D30020AD
:1010A00008630C490A48086010BD0020094A01463F
:1010B000121D1318401CC0B219730C28F9D37047C5
:1010C000DE02000090050000EC4B0010C002001092
:1010D0009EBF00100002000010B501461E4803F03C
:1010E000A1FB410A1D4A012050601C4800234030EA
:1010F00003620F23C3620161FF214161816103210A
:1011000051600421016210BD70B5401F0C46144DA2
:10111000030003F022FD081A1A1717170D05081708
:101120002868844211D00846FFF7D6FF2C600CE0F7
:1011300029225206506BC9B2FF231B0218400843F4
:10114000506302E0002000F01FFD012070BD034944
:101150000F204031C8627047005A620240000052BE
:101160000C0500003D2002490004086370470000A0
:101170004002005510B529214906CA680C239A433C
:10118000CA6002234E4A012807D0022805D003284E
:1011900006D0002000F0F8FC10BD5360494801E083
:1011A00053604948086210BDF8B529246406E16817
:1011B0000C221143E16003260121414D00280DD08E
:1011C000032805D0052805D0002000F0DDFCF8BD7F
:1011D0006E6001E0022068602162F8BDA06B03220E
:1011E0000002000A12068018A0632868CF2210406F
:1011F000286036482062206A2122520190432062F2
:10120000206A0122D20390432062206AD2119043C7
:101210002062206A084320622D4F3846FFF700FC09
:1012200027480021403001601321416081606E60D9
:10123000206AF521C9018843206226482861286276
:101240002548FFF7EDFB172028603846FFF7E8FB3D
:1012500037202860F8BD70B5204CA16B00208200BB
:1012600012191268401C891A0E28F8D320681C4AEB
:1012700029256D06904217D1E06B1A4A904213D18E
:10128000002910D1A0680104E06800020143206930
:1012900001436068C0B200F09CFC6069A1692863EA
:1012A00008020830686370BD402028630E486863F8
:1012B0000E49072000F08DFC70BD002074E700008F
:1012C00040000052A57F000005780000A0FF00004C
:1012D000881300004000FFFF3075000080C300202D
:1012E000100410201306741908400000202020006C
:1012F0000949084808620A4808490160074940311D
:10130000416008494017086006490748803908606D
:10131000704700000000C04000ED00E00040404089
:1013200000E400E080E100E0A120000005210423AA
:1013300084220907012807D0022803D004280AD0F4
:10134000082809D10B6007E00B60002000BF401C9B
:10135000C0B23228FAD30A6001207047F8B50446BB
:101360000A4640782178C04D00020843A1782881C0
:10137000BE4B69812E46C11A0127403E984211D0CA
:1013800009DCBB49401A2CD0092861D00A2840D07A
:101390000B285FD14AE0012911D0092925D00A295B
:1013A00058D128E0E178A0780902401821796279C3
:1013B00009041206891841180C22AE480EE0E178A3
:1013C000A078090240182179637909041B06C9181D
:1013D0004018911F00293DDDA11D921F03F0B8F9AF
:1013E00038E0777701F058F834E000210420FFF767
:1013F0009DFFB7772EE09C490020F77780392218AF
:1014000093780A186032401CC0B213702028F6D3BB
:1014100020E001F046F8E078A17800020843A881B6
:101420006079217900020843E88113E0A078002860
:1014300010D1E078002805D1201D01F01DF8A0781A
:10144000002807D1E078012804D12079002803D0B2
:1014500001F02CF80120F8BD01F023F8FAE7012192
:10146000C2B2C903401A0004000E83498300C95860
:10147000002901D0022801D3002070478818704746
:1014800030B57D4C030A5D00203C645BC2B29442DF
:1014900002D80020088030BD784D9B00EB58A41A7C
:1014A0009B1820380C800C2801D2A8688318184695
:1014B00030BDF8B5724E756A0020C043F062E80591
:1014C00001D5704824E0A806800F22D06C4C403C27
:1014D0006168C807FCD067480C380078122803D12F
:1014E00000210820FFF722FF644F2846083F397883
:1014F00000F019F802202060012020600C202062FA
:101500006148A0626148206200203870FF200130ED
:101510003062F8BD10B56C2000F041F8574900204A
:101520000839087010BD38B55548574D4038406AE5
:10153000FF218000800C01310C1A687829780002A4
:1015400008434E4908394860022C0DD025DD484932
:10155000411A20290CD2FFF7A8FDE1B22846FFF777
:10156000FDFEFFF7E6FA18E0214600F039F814E036
:1015700001210903884210D26946FFF781FF002844
:101580000BD069460988A41EA14201DD69460C8082
:1015900069460A88A91C03F0DBF8012038BD30B584
:1015A00084210522120711600123136100251562B1
:1015B0003349022440390C600B600C610B617F23BE
:1015C0001B021843D0610C2008622F4888622F4804
:1015D00008622B48E11EC162C562E101016230BDB3
:1015E000F8B509260446B6010025801B022808D25A
:1015F00000210420FFF79AFEFFF726FD0019801B4B
:101600001CE001200003844204D2A0B26946FFF727
:1016100037FF13E0A121261AC9008E4206D200210D
:101620000420FFF783FE1A48354609E00121C9036B
:10163000611A814216D2A0B2FFF711FF002811D023
:1016400041190F48042202600D4B0222403B1A61EF
:1016500001221A6105231B079A6081600D49016010
:10166000491E0160F8BD0000280600000C080000BB
:1016700000080000100200009C4B0010180500003C
:10168000C0000050300000203C06000009000001AE
:10169000005D00400900FFFF0120704710B5827B0C
:1016A000042A01D0022A21D00023152292060468C0
:1016B00094614468D4619360037B447B5B1E1B048C
:1016C000641E2343D3600389847B1B04234313617B
:1016D0004389807B1B0403435361012090621060A7
:1016E000002902D050680028FCDB10BD0123DCE794
:1016F000012115208006816201627047F3B583B035
:101700000E46FFF7A1FC2924039800256406012852
:101710000BD0022809D0032807D004286DD0002060
:1017200000F032FA012005B0F0BD394F7869009021
:101730003146384803F076F8E96B0291296C019143
:10174000216A4908490021623349721C01D132499A
:101750002031226A0A432262304A1562FF23D36293
:1017600039463D612E4AEA632E4A2A64A268FE2366
:101770001A40A260226A02231A432262002200BF9A
:1017800000BF00BF521C322AF9D3226A01239B02F8
:101790001A432262012767624861886107220A6151
:1017A0000398032816D030460099FEF789FE206A78
:1017B000000C00042062206A3843206265620298AF
:1017C000E863019828641948174901601348042107
:1017D0000162A7E70098761C0BD0154B236230BF3F
:1017E000256251231B061D60486188610A61A7605C
:1017F000DDE70F4B09332362F2E70C497D2000013E
:101800000D60A06103206061012060618AE7000033
:1018100000E000E050C3000084FB000080000052A4
:101820000301000007010000E120000000E100E0EA
:10183000A67F0000FEE729201D4940060162012223
:1018400002600021416182600F22026101613F213B
:10185000C161FE21C160704710B5FEF737FE10BDB3
:1018600010B501F05AFA134B134A0021134801F046
:101870005EFD01F075FA10BD10B5FFF7ECFC01F04C
:1018800053F9FFF71AFDFFF76DFCFFF760FCFFF758
:101890002FFFFFF73FFEFFF72BFD00F081F902F06D
:1018A0008BF802F013F8FFF7DBFF012010BD0000FA
:1018B000A07F0000580A000009C800009B0A001021
:1018C0000A4603467047FEE730B503460020AD4C9C
:1018D00001465A569200121952684D00AA40491CFE
:1018E0001043C9B21029F4D330BDF8B50F460446F1
:1018F0001D4616461021104602F090FF069880788B
:10190000A04254D80699C978A14250D3201AC1B236
:101910000024E878AA7803E0091A1319C9B2DCB2E6
:101920008842F9D9601E10182B7AC0B2834204D8BD
:10193000981AC4B2601E1018C0B2002F0AD0012F2E
:101940000FD0202833D3202C1FD22022121BD2B23A
:1019500000241DE0102C2AD2102800D30F200022D2
:1019600023E0202C23D2102821D3102C04D21022C3
:10197000121BD2B2002402E0103CE4B20022202864
:1019800001D30F2011E0103803E00022203CE4B224
:101990002038C0B209E0EB786F685343FB18CB5C8A
:1019A0003355641C521CE4B2D2B28442F3D9F8BD60
:1019B00078B56C4603462170002062701C01014618
:1019C0006E46012573567F22002B04DB1A1B520042
:1019D00052B2002A02DB2B4693401843491C49B2FD
:1019E0000229EFDB78BDF0B51746002401220E4630
:1019F00005468A5687B031572046FFF7D9FF059034
:101A0000202D08D2102D02D26800012484400598B0
:101A1000204307B0F0BD3A78AA4212D87878A8429D
:101A20000FD30020717A03E0401CA400C0B2641CF4
:101A30008142F9D8A81A484341002046091D884030
:101A4000E7E7334601AA002128460097FFF74DFF3C
:101A500001A8FFF739FF05990843DAE7F0B5174603
:101A600001220E46054600248A5687B031570120D0
:101A7000FFF79EFF0590202D08D2103D102D02D2B9
:101A800068000124844005982043C2E73A78AA42BE
:101A900017D87878A84214D30020717A03E0401C4C
:101AA000A400C0B2641C8142F9D8A81A484341007E
:101AB0001C3902D420468840ABE749422046C84042
:101AC000A7E7334601AA012128460097FFF70DFF3B
:101AD00001A8FFF7F9FE059908439AE7F0B5944687
:101AE00001220F46054600248A5685B03957022048
:101AF000FFF75EFF0646202D16D360460278AA4205
:101B000018D84078A84215D30020797A03E0401C09
:101B1000A400C0B2641C8142F9D8A81A484341000D
:101B20003C3903D42046884005B0F0BD49422046E8
:101B3000C840F9E7604600903B4601AA02212846CA
:101B4000FFF7D3FE01A8FFF7BFFE3043ECE770B507
:101B500005460C46007AA9784018401E02F06CFE3B
:101B6000697A064608461F3002F05CFE2030A070FD
:101B7000E97871434118491EE17020212170401E0F
:101B8000607070BDAC4B0010002800D1FEE77047BC
:101B900010B50022D2430921FE4802F01AFE10BD02
:101BA00010B5FFF7F5FF0021084601F0FDF8FA49EE
:101BB000487010BD704710B501F07AF8012055212A
:101BC00009068862F448407801F0B2FA01F075F82D
:101BD00010BDF1480022027041607047F0B54178B5
:101BE000012910D000218C4600220178FF24EB4D02
:101BF0001346002905D001290AD0022907D003295C
:101C000003D02A4604E0FF21EDE7002400E0FF2393
:101C100000210F468D05E24E2D0CAD196F62664610
:101C2000AE626C602A62AB60491C89B20429F1D3B0
:101C30008178DC4AC9005358D7494C682402240AE9
:101C4000234329246406A36380780978C0008018A0
:101C500040684907490F0843D3490860F0BD10B5F3
:101C60000179D24B00290BD0012908D10021046849
:101C70008A00A458D2181462491C0829F7D310BD51
:101C8000002001468200D2181162401C0828F9D3B6
:101C900010BD70B5027A8A420DD900220C23C44CC3
:101CA00059439300CD1846681B1975591D60521C85
:101CB000D2B2032AF5D370BD10B50020FFF764FF40
:101CC00010BD10B5B949028B8031521E0A60428B9B
:101CD000521E4A60026A521E8A60036AC269D21AA0
:101CE000521ECA60B149C289C031521E4A6142695E
:101CF000521E8A6143690269D21A521ECA61828CDD
:101D0000521E0A62C28C521E4A62C26A521E8A6205
:101D1000C36A826AD21A521ECA620388A54A5B1E2F
:101D2000136343885B1E536383685B1E93638468FD
:101D300043681B1B5B1ED363028E521E0A63428ED6
:101D4000521E4A63826B521E8A63426B806B101A6A
:101D5000401EC863012010BDF3B581B00826964D22
:101D60009648019902F05EFD47087F007D2074428D
:101D7000C000009747439248924A60433946801812
:101D800002F05AFD0199081A00D54042A84202DA31
:101D9000264605460836641C082CECDB02980670C3
:101DA0000098FEBDFEB5054608460E4624300C469A
:101DB0000F4600910190303618340C3768883E3158
:101DC000FFF7CAFF60604008A060287829794018B2
:101DD000608001202080297A6A7A8A1800998A60B6
:101DE00061884A0000994A8061684A0800994A60FF
:101DF000297A521C521A00990A8030800F20708074
:101E0000A068801E00097060697902F00BFD7060A7
:101E10004008B0606979A06802F004FD0146A0881E
:101E20002A785043401C09180122B088AA56504312
:101E3000401C091A0198491E01806979A06802F0C6
:101E4000F1FC014601984160B1680198491C81602C
:101E50002879697948434100019841806068B860F9
:101E600060686288411C521C504328300818786012
:101E7000656840192946401E02F0D4FC684378602A
:101E8000616889084018786060887880FEBD474A9C
:101E900010B5403A116B04468079002800D08020AC
:101EA000090E09060143712001431163E1683C20DA
:101EB000085EA27A904205D02046FFF773FFE168E2
:101EC000A07A8887E068FFF7FCFEE0682030817F19
:101ED0000A20FFF719F910BD354902680A61426806
:101EE0000A6280684862704730B54179FF22490430
:101EF0001202891A82792D4B1143403B59632D49B7
:101F0000002440310C6102792146002A02D0012AC6
:101F10001DD109E000200122451E9A639D63801CAB
:101F200080B2FF28F9D912E0002107E002684D00D5
:101F3000525B9A6352429A63491C89B242798A423F
:101F4000F4D81006FF21C00D0131081A81B200201B
:101F500002E09C63401C80B28842FAD330BD7CB55D
:101F600006466946FFF7F3FD124D00244035E0B206
:101F70006A463146FFF737FD2860E0B26A463146CF
:101F8000FFF76CFD6860E0B26A463146FFF7A6FDD8
:101F9000A86019E05C0A00005805000055550000D3
:101FA00000004053BC4B0010400000528000005520
:101FB00080030055C001005540420F00409C0000C6
:101FC000400D0300005A6202641C802CCFD37CBDFC
:101FD000FE4A7F211161C2E730B5FC4C0022803CF3
:101FE0009300CD581B191D64521C052AF8D30021FB
:101FF0008A00835812191360491C0829F8D330BD90
:1020000001684068E8E770B5F14E002293001C4675
:10201000456818342D599C19256445681C33EB58C4
:102020002365521C1206120EF0D0027A8A4212D98F
:10203000552500222D064C01910046686318F6587C
:102040004B191E63466836190C3171581965521CBC
:10205000D2B2032AF0D370BDFEB5C7680446B86992
:10206000417A08461F3002F0DDFB2030C0B20190FB
:102070002088002580B20090207C2E46030002F0CC
:102080006CFD080A14051413110F0C140098012597
:102090000004009009E0002000E02020019004E00E
:1020A000012602E0022600E00326F868C94F002856
:1020B0000FD00222417ABA56914201D1090608D5C1
:1020C0000021FFF7A0FFE068C068407A4006400E9C
:1020D000B870E068806800280ED00122017ABA56F4
:1020E000914201D1090607D5FFF78AFFE0688068B1
:1020F000007A4006400E7870E068806900280ED0B3
:102100000522817ABA56914201D1090607D5FFF717
:102110005FFFE0688069807A4006400E7871E06871
:10212000C06900280ED00622C179BA56914201D169
:10213000090607D5FFF7D8FEE068C069C0794006F8
:10214000400EB871E068006A00280ED00722017BBB
:10215000BA56914201D1090607D5FFF7BDFEE068E6
:10216000006A007B4006400EF871E06800680028B5
:102170000FD0002D0DD1817A7A57914201D10906F5
:1021800007D5FFF784FEE0680068807A4006400EBD
:102190003870E0684068002811D0002D0FD0002171
:1021A000807A7956884201D1000608D50020FFF7D1
:1021B000EBFCE0684068807A4006400E3870E068CA
:1021C000006900280FD00322417ABA56914201D10A
:1021D000090608D50021FFF75CFDE0680069407A38
:1021E0004006400EF870E068406900280ED00422D6
:1021F0004179BA56914201D1090607D5FFF72FFD63
:10220000E068406940794006400E3871E068406AF5
:1022100000280ED00822C178BA56914201D1090691
:1022200007D5FFF7DBFCE068406AC0784006400E47
:102230003872019801230106E07A1B040204D21AC5
:1022400000021143FF3801380143607AA27A8018F6
:10225000401E01435520000681605F4AA907891886
:10226000EA03114332051143C16019020161A188DB
:1022700049044161009981610021C9438162544A46
:10228000C032916301210162504BE27A4033521E09
:102290005A610160FEBD10B50020FFF775FC0120FA
:1022A00010BDF0B587B005460846243006902430AE
:1022B00003900C3002900A460C30059101900E46B6
:1022C0000C460F463C320C300492009030361834E5
:1022D0000C3768887A31FFF73FFD60604008A060E6
:1022E00028782979401860808020208061688A08D9
:1022F0000599163A8A6061884A0005994A806168A2
:102300004A0805994A6005998B220A806168049AF7
:1023100089089160049A61885180049A61685160CB
:10232000049A10806068810803988160039861882E
:10233000418003986168416060684108039880317A
:1023400001806068810802981439816060884100CA
:102350000298418060684108029841606068810885
:1023600002988A3101806068410801988160618823
:102370000198418001986168416060688108019816
:102380006C31018060684108009881600098618824
:102390004180009861684160606880084100411890
:1023A00000986C310180012030800F207080A0687F
:1023B000801E00097060697902F034FA706040088C
:1023C000B0606979A06802F02DFA07E000010055BD
:1023D000000300555C0A0000430300200146A0886A
:1023E0002A785043803009180122B088AA565043F9
:1023F000401C091A0698491E01806979A06802F0FC
:1024000011FA014606984160B1680698491C81603E
:102410002879697948434100069841806068B8602E
:10242000606862880146521C42434008803110189F
:10243000081828307860656840192946401E02F067
:10244000F1F9684378606168890840187860012074
:10245000788007B0F0BD000010B501462422F64890
:10246000FEF7E8F8F4480021243001714171016061
:1024700081710181C16010BDEF4902888A81428863
:10248000CA8182880A83C2884A8302890A82408973
:1024900048827047E8487047E74901202431487175
:1024A0007047E5490120243188717047E2490020D6
:1024B000243188717047E048243000897047DE4835
:1024C000243000797047F0B581888279DA4B514326
:1024D00009B28C4600211A462032964621E0046853
:1024E00000224D006519144605E06600AE5FB21883
:1024F0008688341924B26445F7DBCF4C2434247920
:10250000022C13D01D688C000C272E59DF5F7E43F0
:102510000E27DF5F5743BA01B21892112A51491CA6
:10252000C9B2724612788A42D9D8F0BD92011C68AD
:102530008D006251F3E7F0B5BF4A002017462037FF
:1025400012E08100536814685B58645810261C1B05
:102550009368965F5D5875431226965F6643AC1983
:10256000A411401C5C50C0B239788142E9D8F0BD5A
:10257000F0B5B14A0020174620370FE053688100BC
:1025800018255C58555F1A266C431568965F6D5880
:1025900075436419A411401C5C50C0B23978814263
:1025A000ECD8F0BDF8B5A44DA34C243528792246CB
:1025B00002272032002858D0032602283CD00328C6
:1025C00008D0042805D1FFF7B6FF6879002823D08A
:1025D0002F71F8BDFFF7AFFF6879002801D02F7188
:1025E00013E0A87900280AD02868401E2860002837
:1025F00008DC1E20205E28600420287105E01C20D5
:10260000205E28602879032803D01C20205E002843
:10261000DFDDFFF7ADFFF8BDA879002809D12868F4
:10262000401E28600028F6DC1C20205E28602E71E9
:10263000F8BD1E20205E16E0002006E08100236821
:1026400067685B58401C7B50C0B211788142F5D856
:1026500000206871A879002802D004202871E8E7DA
:102660002E711C20205E2860F8BD1178A068FDF74F
:102670007FFFADE770B5054670480C46807A0028AC
:1026800017D0601B00D5281B7D214010C90048438E
:102690006B4902F0D1F81F2800DD1F201F21091A05
:1026A000012900DA01214D432819491C02F0C4F820
:1026B00000E0084680B270BDF7B500218000864674
:1026C0005D4890B080686D46844606E07346880099
:1026D0001B186646F3582B50491C9142F6DB1346F3
:1026E0002F4612E09900714460464058002409E0EA
:1026F000A5007E59864204DA01463046514E795192
:102700007151641C9442F3DB5B1C11988342E9DB3A
:10271000002001463B4603E08D005D592818491C06
:102720009142F9DB114602F087F84649A200885031
:1027300013B0F0BD10B5444802783F48203001780E
:102740000020FFF7B9FF414909684843404909683B
:1027500002F072F8012801DA012003E038498842CA
:1027600000DD084634492431088110BD394910B5CF
:10277000884204DC8000032102F05EF810BD4E2187
:102780004843642102F058F83349401810BDF8B5A9
:102790000C460546FFF7CEFF27482849243002891A
:1027A000264860300282887A022810D1012088727F
:1027B00000230620214E5843203E8019468F27488B
:1027C0005F00C0685B1CDBB2C6530F2BF1D3887A65
:1027D00000281DD0681C01D1601C07D0A1B2A8B28E
:1027E00001F044FFFFF7C2FF012801DA012003E0F6
:1027F0001349884200DD0846124C0F4D81B2243542
:102800006061A88980B2FFF735FFA061E860F8BD7C
:102810001046F8BD70B50546074A00200146104B2A
:10282000946806E08A004E00A2589E5F724310181A
:10283000491CA942F6DB70BD680A0000680200006E
:10284000FFFF0000C00B00000C4C0010244C0010D7
:10285000284C00106666000052380000780C00001A
:10286000EE4B001010B50446A848A94A00690121A2
:10287000936805E08A009A58824200DD1046491CA0
:10288000A142F7DB10BDF3B583B00C46039801F00D
:10289000D3FF642102464A439E498A4261DB2046B7
:1028A00002F043F96422002301F01AFF0746204694
:1028B000014602F03AF9984A002301F0F9FE642239
:1028C000002301F00DFF009001913846014602F00F
:1028D0002CF905460E463846214602F026F98F4A65
:1028E000002301F0E5FE2D1A8E412046014602F03C
:1028F0001CF98B4A002301F0DBFE28187141019B73
:10290000009A01F0EDFE064600912046854902F04E
:102910000CF9FD17C21B0B46AB411D46384621463C
:10292000029202F002F96422002301F0C1FE2B465C
:10293000029A01F0D5FE044664253846294602F085
:10294000F4F83246009B01F0CBFE241A2946039886
:1029500002F0EBF83246009B01F0C2FE001905B010
:10296000F0BD70496422091A0398504301F064FFD6
:10297000F5E7F0B50D46664986468A6893B00020B3
:10298000944607E06246810053586A4653500FA9A7
:102990000854401CA842F5DB2C4617E0A100604615
:1029A0004358E1B200220EE090006E4636589E4237
:1029B00008DA1F4633460646684687510E460FAF73
:1029C000B95CBE54521CAA42EEDB641C7445E5DBC4
:1029D000002634461CE04E4F0FA8005D7968800049
:1029E00008584B21C900FFF74EFF00900FA8005D6B
:1029F00079688000BA6809581058081A4B21C90034
:102A0000FFF741FF019001990098401A8619641C54
:102A1000AC42E0DB30468BE6F3B500244B2791B0A7
:102A20003B4EFF0013E07068A50040593946FFF7A0
:102A30002AFF0F907068B16840594959401A3946C9
:102A4000FFF721FF0F99091A68464151641C11983C
:102A50008442E8DB00216D460EE0119808E0840016
:102A60006619803E2A59F36F9A4201DD2B51F267B5
:102A7000401E8842F3DC491C12988142EDDB0020A5
:102A8000014603E08A00AA581018491C129A914284
:102A9000F8DB4DE6F3B51E4985B08968864600200F
:102AA0008C466C46624681005258625004A9085414
:102AB000401C0428F6DB042314E0604699004258C9
:102AC000DCB200218F006846C559954206DA1646E9
:102AD0002A46C651204604AD6C5C6854491C042942
:102AE000F0DB5B1C7345E8DB002001466C4604AA62
:102AF000555C8B006E00069DE358AD5F491C6B432F
:102B000018180429F4DB07B0F0BD0000402700408E
:102B1000680A0000F07E0E0040420F00204E0000C8
:102B200000E1F50510270000FF2053221206506037
:102B300004211162506200219162D16210630C4B3A
:102B400058600C4A1A6259629862094B40335860C7
:102B50001A6259629862064B803358601A62596251
:102B60009862034BC03358601A625962986270478A
:102B7000000040535555000010B501460120FEF7F6
:102B80008BFD10BD10B501460420FEF7B7FD10BD4A
:102B900010B501460120FEF7B1FD002010BD10B5B3
:102BA00001460320FEF7AAFD002010BD70B50446C3
:102BB00003210520FEF7A8FAFF20F530FDF730FFCE
:102BC000374D287800F086FA00F0C2FE642128789C
:102BD00000F0D0F9002802D00020FEF7D5FF032135
:102BE0000620FEF791FA2F4801780078C907C90F2F
:102BF0000818C3B22D492C480A7800780021FDF747
:102C00004AFD206C401C2064012070BD70B5049CFE
:102C1000DD0703D0002C01D05B1CDBB25A4300233C
:102C200007E09C005E000D59865FAD195B1C0D51DD
:102C30009BB29342F5D370BDFFB581B006460B98A9
:102C40000D9C0A9AC50703D0002C01D0401CC0B2CD
:102C5000424315B2022B02D0002400911CE00F4623
:102C600000240AE0A00030580C998840039901F034
:102C7000E3FD6100641C785224B2AC42F2DB05B083
:102C8000F0BDA700F0590C998840039901F0D4FDDC
:102C90000099641CC85124B2AC42F2DBEFE700009B
:102CA00059050000EC4B001004020000ED4B001031
:102CB00010B53348FDF770FC10BD10B53048FDF776
:102CC00075FC2F4C207800280AD1A078012807D164
:102CD0006078401C607000F0FFFA6078401E607001
:102CE00010BD10B5264C6078012802D06078401ED7
:102CF0000BE024480078012801D100F05DFAA078AB
:102D0000012801D100F0E8FA0020607010BD1C48D5
:102D10004178491C41707047E3E710B51B481A49D8
:102D200041618161072101611948C169FF221206D1
:102D30001143C161016A12121143016200F078FA75
:102D40000F484178491C4170124B65221C46920184
:102D50000021114800F0EBFA2046FDF735FC10BDCC
:102D600010B50F490D4808600E49086001214171F6
:102D700000F096FAFFF7B5FF10BDFF201430704742
:102D800060050000630500001416050000E000E087
:102D900000ED00E08C0B00006D310010CC0A00004B
:102DA000740500007005000070B5EB4A0646107807
:102DB000401C1070E94D0024A86801231A46A24067
:102DC00010420ED1A3401843A8602868A1400843D0
:102DD00028606868A64030436860FFF782FF20469D
:102DE00070BD641CE4B2202CE8D3FFF77AFFFF200B
:102DF00070BD10B50268D94C00234168002A08D084
:102E000000290FD0516006C808381160C0680361FE
:102E100010BD002903D0216141680B60F6E7E36033
:102E20002361F3E7E26001684B60EFE770B50546A8
:102E3000FFF7DFFFEC686069401C02D0204600F01D
:102E400044FB0020C0432061C5480068844202D191
:102E50000120607102E0204600F0FFF9286870BD93
:102E600070B50E460146BF48BC4D0078002801D021
:102E7000032070BDB84A1078401C107001248C40AB
:102E8000E86816E08168214212D0002E02D0012E9F
:102E900004D00DE0FFF725FF042070BD027C002A5E
:102EA00001D1A14202D1FFF7C1FF02E0A14381603D
:102EB00000680028E6D1A868A043A8602868A0435D
:102EC00028606868A0436860FFF70BFF002070BDB2
:102ED00010B5A24901220B68824013420CD09E4CCF
:102EE0002078401C207008464068104083430B60E7
:102EF000FFF7F7FE002010BD0C2010BDF8B51546F9
:102F000002469648944F03683E781C461440761C4F
:102F10003E70064677681E4616403740BB43002C7D
:102F200001D0012909D0944201D1002905D0FFF731
:102F3000D8FE0C2028700020F8BD0360FFF7D1FEFA
:102F4000002028702046F8BD10B5854C834B2468BE
:102F50002061C4608160027419690022002905D0D3
:102F60000860196902604160186110BD026042602A
:102F7000D860F9E7F3B57B4985B00978002902D01C
:102F8000032007B0F0BD744F3978002901D0152017
:102F9000F7E73978491C3970704C01252168854064
:102FA000294204D0606828408143216028E06C48B1
:102FB00029460668069800280DD002226846FFF7C9
:102FC000C3FF3046069900F04FFAFFF78AFE3069DA
:102FD000002819D00AE002226846FFF7B5FF022058
:102FE0007071614901200870FFF77BFE002030619D
:102FF0003878401C3870606805402068A84320601D
:10300000FFF76FFE0020BCE70520BAE7FFB50646D4
:10301000544885B000781D46002801D0032004E004
:103020004D480278002A02D01520187050E04A4816
:103030000278521C0270494C2068224653680246AE
:1030400007463240134037409843002F01D00129F2
:1030500023D0B74201D100291FD041480A46076852
:1030600007983146002868461FD0FFF76DFF3846A5
:10307000079900F0F9F9FFF734FE3869002825D0E8
:103080000020386134480178491C017033480768D2
:10309000616838463740394088432060FFF721FE99
:1030A00000202870384609B0F0BDFFF74DFF022020
:1030B00078712D4901200870FFF713FE0020386158
:1030C00025480178491C01702768E1E70520287030
:1030D0000020E8E7214901230A6883409A43002041
:1030E0000A60704770B51D4C012521688540294252
:1030F00001D0002070BD2943174821600178491C88
:103100000170E0680FE0017C22680029816807D027
:10311000114207D0FFF78AFE6168294203D004E01C
:103120009143F7D000680028EDD1FFF7DAFDE0E722
:1031300010B50949097800290AD001460022032068
:1031400000F018F8002801D0002010BD122010BD9A
:10315000FFF7C8FF10BD0000610500009C0A0000D9
:1031600074050000600500006205000030BFFDE747
:10317000FEE70000F8B514460D460646FDF722FAB4
:10318000294F3878032803D3FDF71AFA0020F8BD39
:103190002548FDF701FA7978244B012240181A706E
:1031A000032101F03FFBC800C3191E715D719C60D3
:1031B000FDF706FA0120F8BD7CB51C4D00266878A5
:1031C000012802D100F0E9F96E70A878164C0128A8
:1031D0001ED100F001FBAE701AE0FDF7F3F9607844
:1031E000C10009198A684968009101920321401CB5
:1031F00001F018FB61702078401E2070FDF7E0F9A7
:1032000068460078032803D168464078FFF76AFFD4
:1032100020780028E1D1FDF7D5F92078002800D1E9
:103220002E70FDF7CDF97CBDB00A000063050000EB
:103230008848002102462032032381714371826154
:10324000491CC9B2203020320229F6D381710021F5
:10325000816181497F480860704770B5037900211A
:1032600041717D4901244A687C4D002A07D01679B6
:103270009E4206D92C708261D061486070BD2C706E
:10328000FBE79169002904D00C799C4201D80A46D9
:10329000F7E781619061C2610029EFD0C86170BD1C
:1032A00010B582696C4C0023C169002A0AD000293C
:1032B0000ED0002A08D08A618169C269CA6183611F
:1032C000C36110BD002901D08B61F9E7636010BDB7
:1032D00062608361D36110BD70B55F494C68C86896
:1032E000002C23D08A68904220D15D4A1278012AAE
:1032F0001CD85C4A1278002A18D1584B1A704679AB
:10330000037922790125012E05D08C606571204654
:10331000FFF7C6FF08E09A4208D28C60FFF79DFFD6
:103320002046FFF7BDFF6571FDF752F970BDFFB58F
:10333000494C81B0E0681646D7B2002831D1049AD2
:10334000019800F07FFA054645480178491C017054
:1033500020682146002820D0044680690860FFF7D5
:10336000C0FC204604001CD0256000202771C0430B
:1033700060610198A0600498E0600020A061E061B5
:103380002061002E10DB36480178491C0170204670
:10339000FFF763FFFFF7A5FC08E0FFF7A2FC0020A2
:1033A000E0E7FF2005B0F0BD02206071A079F9E7E9
:1033B00010B5284A41018C18002804D060792849AA
:1033C000012802D006E0142010BD0A78002A01D09E
:1033D000152010BD0A78521C0A70002802D002285D
:1033E00004D00EE02046FFF75BFF0AE06069401C56
:1033F00002D0204600F069F82069002801D0FFF7CC
:10340000F8FC03206071154901200870FFF769FC82
:10341000002010BD1048C0688079C9E710B50D4A7A
:10342000400184186079032801D0002010BDE268B3
:10343000A06800F007FA206009480178491C017073
:103440002046FFF70AFFFFF74CFCEEE70248C06892
:1034500080797047CC0A0000680500006205000012
:10346000610500006005000030B500292CD05F4DDB
:103470002C68002C01D022461AE0416128601EE031
:10348000D369002B05D09861D369C3618261D06193
:1034900002E08461E06128608269536959184161E2
:1034A0005369591A51610AE09369002B04D01A46F6
:1034B0005369C91AF8D5E3E7C261906141610221FD
:1034C00041714B490120087030BD10B5C26900231D
:1034D0008169002A10D000291CD091618169C269DC
:1034E000CA61816944694A6912194A618361C36189
:1034F0000021C943416110BD3C4A002908D0116038
:103500004A69446912194A618169CB618361EFE7B5
:103510001360EDE79361EAE7364903C9704710B5D8
:1035200035490978002901D0032010BD411C07D07E
:103530000028FAD031490A78002A03D0152010BD9E
:10354000022010BD0A78521C0A7001462C480068FF
:10355000FFF78AFFFFF7C5FB002010BD70B50D46D1
:103560002849400144186069401C10D02348017864
:10357000491C01702046FFF7A8FF002D09D02946FD
:103580002046FFF771FFFFF7ACFB002070BD112054
:1035900070BD2046FFF761FEF5E7F8B5134E3468BD
:1035A000002C16D00027FF4300256069002810D1A9
:1035B0002069002801D0FFF71CFC6761A06930601A
:1035C0002046A561FFF749FE3468002C01D0E56173
:1035D000EBE7F8BD09480078012805D90A49012020
:1035E00008700A4908707047D7E7000078050000A6
:1035F000620500008805000060050000610500000C
:1036000074050000CC0A000063050000640500009A
:10361000182170B54843864940184268002A2CD0CA
:10362000844B1978491C1970834D2C68002C01D0EB
:10363000214619E028601EE04B69002B05D0186177
:103640004B6943610161486102E004616061286087
:1036500001694B689A1842604868801A48600AE01D
:103660000B69002B04D019464B68D21AF8D5E3E752
:10367000416108614260FFF734FB70BD18216C4A5C
:1036800010B541436B4B89181A78521C1A701824D4
:103690006043674C4A69001900230069002A0FD073
:1036A00000281BD0106108694A69426108694C68AA
:1036B0004268121942600B614B61FFF712FB10BDAB
:1036C0005D4A002808D01060436108694C68426870
:1036D000121942600B61F0E71360EEE71361EBE74C
:1036E000FFB554490746087881B01646401C08705B
:1036F000514A0024506801252946A140014218D1B1
:103700002946A14001435160FFF7EBFA20461821FA
:10371000484347490C5440184770857002998660A9
:1037200041600499C160002141610161204605B0FA
:10373000F0BD641CE4B2022CDED3FFF7D2FAFF2006
:10374000F5E718213A4A10B5414389188A78002ACA
:1037500003D000228A70FFF75BFF002010BD10B578
:103760001821334A41438C18A178012903D0FFF76F
:1037700085FF0120A070002010BD10B50446182060
:103780002B49604340188078002802D12046FFF77B
:1037900075FF294801214268A1408A434260002008
:1037A00010BD00220A701821484321494018406882
:1037B000704710B5044618201D4B6043C3189A602B
:1037C00059609878002805D12046FFF757FF20461A
:1037D000FFF71EFF002010BD70B5174D15E0607893
:1037E000002802D0012810D105E02078FFF746FF1D
:1037F0000120A07007E02078FFF740FFA06860601C
:103800002078FFF705FFE06880472C68002C02D085
:1038100060680028E3D070BD06480078012805D90B
:10382000064901200870064908707047D4E7000077
:10383000900B0000610500007C050000630500009E
:103840006505000001231B061360131F1860181F75
:103850000123DB430360143801602038704710B542
:1038600015490878401C0870144800230168426814
:10387000491C5A4106C012481C460068002808D05E
:103880004169012902D9491E416102E04461FFF703
:10389000A1FE0C480068002808D04168012902D91F
:1038A000491E416002E04460FFF7B6FF064901206F
:1038B0000870FFF716FA10BD6105000088050000CA
:1038C000780500007C05000062050000344833499B
:1038D000C160243181600C3181614039C1614C315A
:1038E00001623049002206C02C4A80234C3282609B
:1038F000543AC2600A1FC2618A7A1A438A72C06946
:10390000C1781943C1707047244925480C31C16002
:10391000426A00219170406A8022C1781143C170CF
:1039200070471E491E481831C160426A00219170DB
:10393000406A8022C1781143C17070471848002145
:10394000426A9170406A8022C1781143C170704709
:1039500000B585B001208007009001206B46D8801B
:103960001148124900780A7883184240D207D20FD2
:103970009A186B469A800978997258720C480078A8
:10398000D8720C480078187205480390002018740B
:103990006846FEF761FB05B000BD0000A04C0010BA
:1039A0003C0C00009805000091050000EC4B001055
:1039B000ED4B00109005000000B5594889B0007823
:1039C00008A9087057480090564869468030019011
:1039D0005548029055480088C8815548008888811C
:1039E0005448008848825448008808825348008818
:1039F000C8825348008888825248008848835248C9
:103A00000088088351480088888351480088C8830B
:103A10000846FEF721FD00F0A5F809B000BD1CB571
:103A20000120800700903E4869460078401C40080D
:103A3000400088804748007888716846FEF743FD5B
:103A40001CBDF8B5FDF700FB801C009042480078D3
:103A50008F2863D1414824210838418000214160EA
:103A600047210170082141702D48002401783B4D09
:103A70004F0026E02B48A60050383018006D35491D
:103A80008011097800F0D8FE61006852254831495C
:103A900030303018006D0978801100F0CDFE2049DB
:103AA00009780919490068521F482A4950383018C6
:103AB000006D0978801100F0BFFE39194900685285
:103AC000641C174800788442D4DB154C062120780A
:103AD00048434519FEF7EFFC4008288000987D19FF
:103AE0000088288000984088688000988088400876
:103AF000A880AD1DFEF7E3FC28807A190020184B42
:103B0000921F04E081004500595A5153401C21780E
:103B10008842F7DB00210120FDF708FCF8BD00001A
:103B2000EC4B00105026004050270040124C001073
:103B3000104C0010164C0010144C00101A4C0010C1
:103B4000184C00101E4C00101C4C0010204C001093
:103B5000224C0010ED4B001004020000085D0040F4
:103B6000C00B000030B5FE49FE48CA8802800989B2
:103B70004180112101711D214171FB498160FB4987
:103B8000C160FB49F74B0161032014331870052015
:103B90005870F8485860F848986018461030D86057
:103BA000F648C07F5A2807D1F44820300178A5296B
:103BB00002D14178AA2908D0002001214400DA6806
:103BC000401C11530F28F9D330BD4188EC4A51866F
:103BD00080889086E94D0020263505E041004C198B
:103BE00024888918CC86401C518E4C0009198142CA
:103BF000F4D800200621414389184500DC68498F2C
:103C0000401C61530F28F5D330BDF7B50446C06999
:103C1000A5690A23421B0820205EE35E0E1A1B1AC8
:103C200082B0724319461046009300F005FE451914
:103C3000276A606A0099C01B704300F0FDFDC0193F
:103C4000421B14211020615E205E049B091A181A81
:103C5000504300F0F1FD401905B0F0BD30B5039DB3
:103C6000049C854201DA002004E08D4201DD02203F
:103C700000E00120944201DA002104E09C4201DDD1
:103C8000022100E001214A008918081830BDFFB563
:103C900087B00899019100901646844658789A6832
:103CA0001C4610182038C07F129F4100F068119DFB
:103CB000435A117862684900405A864620781018A5
:103CC0002038C07F12784100B0685200415A805AB3
:103CD0007246FFF7C3FF03900020C0430190207895
:103CE00000210090401E059014E0B26863680493C0
:103CF0005B5C5B00D05A604509DC04984B1CC35CDC
:103D00005B00D05A604502DB48B200990190491C23
:103D10000598C9B28842E8DC0020C0430090617871
:103D200000200491491E069116E0F168A2680592F0
:103D3000125C52008B5A089A93420ADC059B421C83
:103D40009A5C52008A5A08998A4202DB40B200907B
:103D500004980699401CC0B28142E6DC002001991B
:103D6000491C15D0C2070199D20F5118C9B202914E
:103D70006368B268595C4900525A4100CB191A81F4
:103D800049190A810299295462680299515C39548F
:103D90000099491C16D08107CA0F00995118CBB25F
:103DA000A268F168D25C9C4652008A5A4100CB1945
:103DB0001A8249190A82634629180B71A1683A18B8
:103DC000C95C11710199491C1DD00099491C1AD078
:103DD000217862465143029AE368891849005A5A89
:103DE00081004B199A618E46A1686246895C3379DD
:103DF000029A594363689A5C336989184A0071468C
:103E00009A5AC9198A61401CC0B20428A7D30398E2
:103E10000021030000F0A1FE09FD91FC064546FBD0
:103E2000E2FA450000206268B16812785200895AAF
:103E30004200964652191181002129549446009956
:103E4000A2680918535C5A00F3689B5A62461382B1
:103E50002A18117123785943E36849005A5A81009E
:103E60004B199A61624613897246D21913816368AD
:103E70001B783B54109BCB185B8A1382109B7246B5
:103E8000D21852793B181A713379C9195A433B5CDD
:103E9000401CD21852003369C0B29A5A8A61022873
:103EA000C1D3E9E000202278616889182039C97FF0
:103EB000B2684900515A4200964652191181217840
:103EC0009446491E29540099A2680918535C5A0067
:103ED000F3689B5A624613822A1811712378491C91
:103EE00059434900E368891E5A5A81004B199A6167
:103EF000624613897246D219138194462278636808
:103F00009B18203BDB7F3B54109B6246CB181B8ADF
:103F10001382109B7246D21812793B181A713379AA
:103F2000C9195A433B5C401CD21852003369C0B2D5
:103F30009A5A8A610228B6D39EE0002001996268ED
:103F40000918525CB36852009A5A43009E465B19A6
:103F50001A819C462954A368F2681B785B0011E023
:103F600004020000640C00006C4D00108E4D001027
:103F7000C84D0010A2510010A551001080BF0010C4
:103F800048020000D25A63461A8200222B181A7186
:103F9000E2684900525A8100009149198A61109AD9
:103FA000734672441289D9190A81109A6346125CC9
:103FB0003A541A8A0A82A1683A180978117132793A
:103FC00051433A5C401C891832694900525A0099A1
:103FD000C0B2C9198A610228B0D34DE0002001990E
:103FE00062680918525CB36852009B5A42009446BA
:103FF00052190092138129546278A3689A18203AC2
:10400000D27F5300F268D25A009B03E094E079E03B
:1040100061E04FE01A8263782A185B1E137163789F
:1040200022785B1E53435918E2684900525A8100B6
:104030004B199A618E461099624661440989D319D9
:10404000198110990A5C3A54009A118A198262788F
:10405000A16889182039C97F3A1811713279514302
:104060003A5C401C891832694900525A7146C91994
:10407000C0B28A610228B2D30398002805D0022872
:1040800003D0062801D0082812D128893881288A2F
:10409000388229786068405C38702A79A168895C28
:1040A000397132795143081831694000085AB861B2
:1040B0000BB0F0BD6268B06812785200805A288157
:1040C0002970A268F06812785200805A28822971FB
:1040D000E06800884FE02278606880182038C07F50
:1040E000B2684000105A28812078401E2870A268CB
:1040F000F06812785200805A288229712078E1688D
:10410000400036E06268B06812785200805A288118
:1041100029706178A06840182038C07FF16840009D
:10412000085A28826078401E287160782178401EE5
:1041300048434000E1681DE021786068401820385D
:10414000C07FB1684000085A28812078401E28703E
:104150006178A06840182038C07FF1684000085A94
:1041600028826078401E2871607821784843E16891
:104170004000801E085AA86187E7F0B597B01D4639
:1041800014461D9B1C9A00930DAF03AE1346029775
:1041900001962A4609B200B2FFF779FD09981399F2
:1041A000604300F049FB17B0F0BD70B514460246FD
:1041B000049D891A181BAA1A504300F03DFB0019F0
:1041C00070BDFFB597B00E461446074603A9209D63
:1041D0000DAA21980191029200902B4631B238B27B
:1041E0001A9AFFF754FD009701966978A86841185C
:1041F0002039C97F00784A001A994000C9688B5A53
:104200000A5A297868681A9D41182039C97FAD6813
:10421000007849004000695A285AFFF71FFD01281D
:1042200039D0032804D0052802D0072833D0FEE770
:1042300010AA0420105E00906A461E211C20099DD1
:10424000515E105E2A460A9BFFF7AFFF054610AA93
:104250000620105E00906A461E211C20099F515EB8
:10426000105E3A460A9BFFF7A0FF034610AA0420FF
:10427000105EB04203D120466843139906E0062041
:10428000105EB04206D120465843149900F0D4FA8B
:104290001BB0F0BDFEE76A463C20105E0090162180
:1042A0001420099D515E105E2A460A9BFFF77DFF90
:1042B00005466A463E20105E009016211420099E95
:1042C000515E105E32460A9BFFF76FFF03466A4657
:1042D0003C20105EB842CED03E20105EB842D2D014
:1042E000FEE7FFB5A1B01A462B9817AD0DAC2A9B7F
:1042F0006F4631C721980E4609B200B2FFF7C7FCDE
:1043000028220DA903A8FCF795F9002003AA810033
:104310000B194F199B69BF698918DB1B401CC0B280
:104320008B610428F3D3324603A82199FFF76DFC73
:10433000239925B04018F0BDF7B586B0174604465E
:10434000002568000619049010210820715E305E77
:10435000019100907978B8687B6841182039C97F4D
:1043600000784A0007994000C9688A5A94460A5A58
:10437000387818182038C07F1B78410007985B00F8
:104380008068415AC05A6346FFF768FC030000F09A
:10439000E4FB093313331306133313332200A8004D
:1043A000009701940019826910210820715E305E27
:1043B000079BFFF796FF0BE0A800009701940019F8
:1043C000826910210820715E305E079BFFF7F9FEBD
:1043D000049902AA50526D1CEDB2042DB1D30020F5
:1043E00002A9420083001B19401C8A5EC0B29A6178
:1043F0000428F6D309B0F0BDA80000970194001975
:10440000826910210820715E305E079BFFF7B5FEC0
:10441000DEE7FFB583B000271179FF43002000914C
:10442000491E1D46144601910EE0A6684300F25A4B
:1044300003998A4205DC9B1CF25A8A4201DB47B28F
:1044400000980199401CC0B28142EEDC00266179DF
:10445000F64300200091491E029111E0E3684200FA
:104460000193995A049B994207DC019B921C9B5A29
:10447000049A934201DB46B200980299401CC0B2F4
:104480008142EBDA0020791C0BD0C107C90FC91992
:10449000C9B2A2684B00D25A43005B191A818E46FA
:1044A0002954711C0DD08107C90F8919CAB29446CD
:1044B000E36852009A5A43005B191A8262462B182D
:1044C0001A71791C0BD0711C09D0227961464A43BC
:1044D0007244236952009A5A83005B199A61401C06
:1044E000C0B20428CFD30499039801910090607959
:1044F000E2684000801E2179135A4900A068891E95
:10450000415A12880088FFF7A9FB030000F025FB41
:104510000906411E06411E06411E41000021A981D7
:104520002981A26803281288EA816A81E97069708A
:104530002FD12179226971434900515AE961A9615A
:104540002179761C7143490022691FE02179A26814
:104550004900891E515AA98129812188491EE98172
:1045600069812179491EA9702970052811D1217905
:10457000731C594349002269891E515AE961A96196
:104580002179B61C714349002269891E515A69621A
:104590002962030000F0E1FA090606063D3D3D17D9
:1045A00017173D00002169822982E26801281288DC
:1045B000EA82AA82E971A9712BD122697900525A43
:1045C0002A62AA6120E06179E2684900891E515A95
:1045D000698229826188491EE982A9826179491E1E
:1045E00069712971072814D162792179521E5143CA
:1045F000C91922694900515A2962A9616279217950
:10460000521E5143C91949002269891C515A6962D5
:10461000E9610021C943002806D0022808D00628F5
:104620000AD008280FD11AE020690021415E0AE073
:1046300020792169400017E061792079491E4843BB
:1046400021694000095E481C07D0002082005219F1
:10465000401CC0B291610428F8D307B0F0BD2079A6
:104660006179484321694000801EEBE770B58AB04C
:1046700016460C4605466B460B4A09B200B2FFF7D8
:10468000C8FE094A084914326846FFF755FE22461B
:1046900029466846FFF7B9FA01460448808E704300
:1046A00000F0C0F80AB070BD640C000048020000C1
:1046B0004343514330B55C18010C130C0D4692B2C4
:1046C0005D4380B251432C19054655430A0C090439
:1046D0004D1962415843010C00044019514130BD4D
:1046E00070B500252C46AD1A9C4112DA00252C46E7
:1046F0002D1A8C4102DA00F042F970BD00244042CC
:104700008C41214600F03BF9002440428C41214677
:1047100019E000252C462D1A8C410ADA0024524259
:104720009C41234600F02BF9002440428C41214655
:1047300070BD002452429C414042234600248C41DB
:10474000214600F01CF9002452429C41234670BDD2
:10475000F8B5042A2CD3830712D00B78491C0370B8
:10476000401C521E83070BD00B78491C0370401C61
:10477000521E830704D00B78491C0370401C521E44
:104780008B079B0F05D0C91ADF002023DE1B08C949
:104790000AE0FBF74FFFF8BD1D4608C9FD401C4667
:1047A000B4402C4310C0121F042AF5D2F308C91AD2
:1047B000521EF0D40B78491C0370401C521EEAD4E0
:1047C0000B78491C0370401C012AE4D4097801705D
:1047D000F8BDD2B210B513029A1813049A1800F05B
:1047E0000EF810BD01E004C0091F0429FBD28B079D
:1047F00001D50280801CC90700D0027070470029D3
:104800000BD0C30702D00270401C491E022904D3FA
:10481000830702D50280801C891EE3E70022EEE7B1
:104820000022DFE7002203098B422CD3030A8B42CC
:1048300011D300239C464EE003460B433CD4002298
:1048400043088B4231D303098B421CD3030A8B42AA
:1048500001D394463FE0C3098B4201D3CB01C01A78
:10486000524183098B4201D38B01C01A5241430943
:104870008B4201D34B01C01A524103098B4201D331
:104880000B01C01A5241C3088B4201D3CB00C01A9E
:10489000524183088B4201D38B00C01A5241430816
:1048A0008B4201D34B00C01A5241411A00D201463B
:1048B0005241104670475DE0CA0F00D049420310D4
:1048C00000D34042534000229C4603098B422DD323
:1048D000030A8B4212D3FC22890112BA030A8B42CB
:1048E0000CD3890192118B4208D3890192118B421A
:1048F00004D389013AD0921100E08909C3098B429F
:1049000001D3CB01C01A524183098B4201D38B01E1
:10491000C01A524143098B4201D34B01C01A524184
:1049200003098B4201D30B01C01A5241C3088B42C9
:1049300001D3CB00C01A524183088B4201D38B00B4
:10494000C01A5241D9D243088B4201D34B00C01A3E
:104950005241411A00D20146634652415B10104653
:1049600001D34042002B00D54942704763465B109B
:1049700000D3404201B50020C046C04602BDFEB58E
:10498000054610460C46184373D0AE468C460020B0
:10499000AD1A01469C4167D36646002701243D4677
:1049A000B61A9D4102D313463A46212465467646FF
:1049B0002F04360C3E432D0CB61A9D4104D3150C22
:1049C0001B042B4312041034654676462F06360A24
:1049D0003E432D0AB61A9D4104D3150E1B022B43EC
:1049E00012020834654676462F0736093E432D09E4
:1049F000B61A9D4104D3150F1B012B431201241D30
:104A000065467646AF07B6083E43AD08B61A9D41E7
:104A100004D3950F9B002B439200A41C6546764659
:104A2000EF0776083E436D08B61A9D411AD39218D7
:104A30005B41641C16E00018764665464941B71A8A
:104A40009D410191009009D36046B11A98418E466C
:104A50008446009801990025401C6941DD075208F1
:104A60002A435B08641EE6D57246634603B0F0BD78
:104A7000FFE700200146C046C0462A462346F5E728
:104A8000754600F023F8AE46050069465346C00857
:104A9000C000854618B020B5FCF712FF60BC0027A7
:104AA0004908B6460026C0C5C0C5C0C5C0C5C0C5FA
:104AB000C0C5C0C5C0C5403D49008D4670470446CD
:104AC000C046C0462046FBF74CFD0000004870473A
:104AD000A80C000070B58C180578401C6B075B0FA4
:104AE00001D10378401C2A1106D10278401C03E052
:104AF0000678401C0E70491C5B1EF9D12B0705D4AB
:104B00000023521E0DD40B70491CFAE70378401C99
:104B1000CB1A921C03E01D780D70491C5B1C521EC1
:104B2000F9D5A142D8D3002070BDF8B504148BB2DA
:104B3000264682B25E430D1410463714584336049D
:104B400080190021794116466E43371436048019C6
:104B5000794126466E438919F8BD30B47446641E07
:104B60002578641CAB4200D21D46635D5B00E318F0
:104B700030BC184700020407080C0E001C0000009F
:104B80000C00000000000000000000000000000019
:104B90001C00000094000000000000005003000012
:104BA0000002000000000000000000000300000000
:104BB00000000000010000000200000000000000F2
:104BC00000000000000000001400000000000002CF
:104BD0003400000000000003350000000000000465
:104BE0003600000000000005370000000F1008002C
:104BF0000600080006000300060003000100030091
:104C0000060003000600080006000800040000007B
:104C10003800080018002800200020003F00010094
:104C20000000780000100000003C000000000000C0
:104C3000FFFFFFFFFFFFFFFFFFFFFFFF0000000080
:104C40000000000000000000FFFF1F000000000047
:104C5000FFFFFFFFFFFFFFFFFFFFFFFF0000000060
:104C60000000000000000000955A00002AA5000086
:104C7000FFFFFFFFFFFFFFFFFFFFFFFF0000000040
:104C800000000000000000002AA50000955A000066
:104C900000000000004007160000000000100000A7
:104CA0002C4C0010304C0010010200002C4C001065
:104CB000504C0010011200002C4C0010704C0010E1
:104CC00001130000F84C00100C4D00100300000010
:104CD00000FF07072C4D00100104040022F2000021
:104CE00072011000CDCDCDCD060000005D4D00104D
:104CF000604D0010010800000A09080B0D070E0F97
:104D0000050C00040102031F1F1F1F1F001F1F1F90
:104D10001F1F1F1F1F1F1F1F1F1F1F1F1F1F1F1FA3
:104D20001F1F1F1F1F1F1F1F1F1F1F1F010101FF0D
:104D3000FF01FFFF010101FFFF0101FF010101FF71
:104D4000FFFF01FF010101FFFFFF01FF0101010161
:104D5000FFFF01FF01010101FFFF01FF0100000052
:104D60000000000000000000000000003100800092
:104D7000D30026017A01CE0120027202C402170379
:104D80006B03BE0312046504B9040C055B051E0029
:104D90006C00B90014016F01C6011E027802D20234
:104DA0002C038703E00338049004EA044505A005BA
:104DB000F8054E06A206F8065207AC0707085F087A
:104DC000B8080D096709BA09DC06FE0D7115921CB9
:104DD0006D228326DA282C2ABB2AC52AA629432736
:104DE0008523311E5018FD11FC0A780BC7151320BE
:104DF000B228012F8A329B349A3462358B35753450
:104E0000D232272F4E2AA9232A1B5511560F851C53
:104E10009E28E83007366A3889397D3998398A39C9
:104E20003639CC384D36D8312C2B492261167012C8
:104E30005B21ED2CFF33AE376339583A733A083AA9
:104E4000293A433A623AC7382235F12EFF25F9193B
:104E5000BB146C23032E6C3373361D38C2380739EC
:104E60007A38D338B639EA398A387D352B2F362748
:104E7000A11BB6146423B12C6031BB334E353236DE
:104E8000D8369C36B636BB370338F8360F34A32EE7
:104E9000A026331C2A15C4220A2BDB2E15317A32A8
:104EA000D033A43400355B356835B435DF340B328C
:104EB000842C4625E51B8A14E5212229AD2CAD2E34
:104EC000A53068322234C634B5340634A433C9322E
:104ED0009F2FAB2A3024671B691445217E28582C4C
:104EE000062F5F310C33D03484356C359134A433C4
:104EF000E631832EA7298F23391B02142F217C2909
:104F00003F2ED0317034933609384438AB37813670
:104F10000935BD32D32ECD29DD23881B2113702105
:104F2000E82AE730E0349F379039AE3AA43A9F3907
:104F300022381B363A33842FCC2AEB24391CA11299
:104F40005021412C2433DB367F39233B0D3CEC3B95
:104F5000713AE338A9364A34A130132C3226331D76
:104F60000212CD21F72DC4344338843AEA3B953CF4
:104F7000723C443B4D395B37D1344D31D42C102732
:104F8000EC1D871217226C2E6A350E39293B143C12
:104F9000773C173CFA3A3A392437AA344D31F52C8C
:104FA00058271D1E69115422522E0E35C238B23AAE
:104FB000983B823BC33AE739D5373A361834FA3052
:104FC000FB2CD5273C1E45113022FD2D6534B93709
:104FD0005339EE39C8392E3902383436AE34C1323D
:104FE0002830C32CAE27F91D1012D021FF2C82339C
:104FF0007E368037D33756379F368635F333633264
:10500000E830F12EDC2B9E26EE1C43110921B32B38
:10501000B2319F3489358435E93409341B33C531C5
:105020006430122F332D3D2A0F25641B6711172082
:10503000152A6B2F51325E332E3337326D3170307B
:105040002D2FF12DD72C232B0C280323D419351108
:10505000EC1E8A289F2D29301831C430872F992EB5
:10506000862D7F2C4A2BFF2957283F259020C817D3
:10507000E30F851DFD260C2C5D2EEA2E4F2E432DB1
:10508000212CE32A66290E2806273E257922D01DE9
:10509000AA157E0E621C9525552A4F2CC82C322C41
:1050A0002E2BD4293E28B326612517246622931F70
:1050B000471B9D13460E181B0B24A4289F2A122B56
:1050C000572A3129B6272526AA243923A421D21FFD
:1050D0001E1DC218E7110E0D8F195922CE26AE28BB
:1050E0000F29A12862279A255D24F3223A21A21FC5
:1050F0009A1DA51A5C160310820CB617D61FD7236B
:10510000AF2561261226EF2465232B229320EF1E64
:105110000E1DE91AF5170514740E970A7115D51CA2
:105120007B203D22D122A322C5216C20091F7E1D98
:10513000CF1B231A0A184815BD11C00C4209AD1225
:105140006019981C631EBF1EBE1E161EF81C911B04
:10515000081A63188B16E21473125C0F280B2707CA
:10516000210F4C1577180E1A8E1A611AFC19121994
:1051700081171116A414171385116F0FCE0C48094F
:10518000F705610BBC102A149D1580166716BD1516
:10519000FE14C3133B12D110920F0A0E6A0C340A8C
:1051A000670702080E02080E141A0000FC510010D6
:1051B000C00000005C0000001005001058520010F4
:1051C00000020000DC000000100500103453001045
:1051D00000050000A8000000100500103453001066
:1051E000DC020000A80000002C050010DC530010B9
:1051F000A8050000600700002C05001030B5012351
:10520000512424062360114A401C13D0106A08253B
:105210002843106230BF106A000C000410620020A6
:1052200020600B484161816107210161906818434A
:10523000906030BD0920116A01431162FBE700BF95
:10524000704700200349C043C86270470000005205
:1052500000E000E0C00000500000000000780A00FC
:1052600001013804800700005A5A5A5A5A5A5A5AA9
:105270005A5A5A5A0000000001011F070503010095
:105280000100010001000606060690019001580287
:105290005802C800010000000100000000000100E9
:1052A000E8033200500008281E00960060F0FFFF5F
:1052B0009CFF60F03C001E40400000000000000029
:1052C00000000000000000000000010100000000DC
:1052D00000000F0068A600000000000000000000B1
:1052E00000000000000000000000000000000000BE
:1052F00000000000000000000000000000000000AE
:10530000000000000000000000000000000000009D
:10531000000000000000000000000000000000008D
:10532000000000000000000000000000000000007D
:10533000000000000000000000000000000000006D
:105340000000000000000000000000000402000057
:10535000000000003C02000000000000000000000F
:10536000000000000000000000000000000000003D
:1053700000000000200200000000000048020000C1
:10538000000000000000000000000000000000001D
:10539000000000000000000000000000000000000D
:1053A00000000000000000000000000000000000FD
:1053B00000000000000000000000000000000000ED
:1053C00000000000010000000001030A04019C012C
:0C53D0008001000006061100FC0B00002C
:00000001FF
