:10000000F03F0000110000100000000000000000A0
:100010007CB501F00CFC042029214906486000BF92
:1000200000BF00BF00BF0D48406800900020019055
:100030000A4D002405E0A0002858A100019A505064
:10004000641C202CF7D3002100984860009880475A
:1000500000BF00BF00BF00BF7CBD00000004001057
:100060000000000000000000000000000000000090
:100070000000000000000000000000000000000080
:100080000000000000000000000000000000000070
:100090000000000000000000000000000000000060
:1002C000000300000000000000000000000000002B
:1002D0000003000000B900000003000000B90000A6
:1002E00000C0000000040000010002000100040042
:1002F00012114C455456000044000000010001005A
:1003000000000000000000000000000000000000ED
:1003100000000000000000000000000000000000DD
:1003200000000000000000000000000000000000CD
:1003300000000000000000000000000000000000BD
:1003400000000000000000000000000000000000AD
:10035000000000000000000000000000000000009D
:10036000000000000000000000000000000000008D
:10037000000000000000000000000000000000007D
:10038000000000000000000000000000000000006D
:10039000000000000000000000000000000000005D
:1003A000000000000000000000000000000000004D
:1003B000000000000000000000000000000000003D
:1003C000000000000000000000000000000000002D
:1003D000000000000000000000000000000000001D
:1003E000000000000000000000000000000000000D
:1003F00000000000000000000000000000000000FD
:10040000F03F000051180010000000000000000044
:1004100000000000000000000000000000000000DC
:1004200000000000000000000000000000000000CC
:100430000000000000000000E1050010DB340010A7
:10044000AB1400102D1800102D1800102D180010DE
:100450002D180010AF1B00102D1800102D180010C3
:100460002D1800102D1800102D1800102D18001038
:100470002D180010350B00102D1800102D1800102D
:100480002D1800102D1800102D1800102D18001018
:100490002D1800102D1800102D1800102D18001008
:1004A0002D1800102D1800102D1800102D180010F8
:1004B0002D1800102D1800102D1800102D180010E8
:1004C00003B40148019001BDC100000000F002F832
:1004D00000F03EF80CA030C8083824182D18A246A9
:1004E000671EAB4654465D46AC4201D100F030F881
:1004F0007E460F3E0FCCB6460126334200D0FB1A93
:10050000A246AB463343184798460000E846000031
:10051000103A02D378C878C1FAD8520701D330C84C
:1005200030C101D504680C6070470000002300242E
:1005300000250026103A01D378C1FBD8520700D31A
:1005400030C100D50B6070471FB51FBD10B510BD81
:1005500003F0CFFF1146FFF7F7FF01F089F903F031
:10056000E7FF03B4FFF7F2FF03BC01F0A8F90000B6
:10057000FCB40022002300240025002600270629C1
:1005800002D4FCC00639FAE7002902D004C00139C0
:10059000FAE7FCBC7047000002B472B60178013182
:1005A000017062B60139080002BC704702B472B62D
:1005B00001780139017062B6080002BC7047000082
:1005C00062B6704772B670471C3880F3098870476E
:1005D000014802490160704704ED00E0000000108E
:1005E000114B1968114A1268914216D0EFF3098035
:1005F00020380860F0C044464D4656465F46F0C07D
:100600001A6010681030F0C8A046A946B246BB4632
:100610002038F0C8103080F30988054B002018708E
:1006200004204042004700008805000084050000C7
:100630007505000070B505460C46164602E00FCC65
:100640000FC5103E102EFAD2082E02D303CC03C5DC
:10065000083E042E07D301CC01C5361F03E02178E4
:100660002970641C6D1C761EF9D270BD02460020F4
:100670000121890700E089089142FCD808E043186D
:10068000934203D8121A521A4B00181840088908CE
:100690000029F4D17047F0B59446002285B000924D
:1006A000802833D1C5055C00002931D0E048E14EF7
:1006B0000078367887194640F607F60FBE1976009F
:1006C000092929D00A2921D1400040190090684603
:1006D00006810098002819D0D7482421418047215D
:1006E0004260017008214170D3486946083001908A
:1006F000022088734C814B73604608730021684662
:1007000000F0C8FF0021012000F00CFE05B0F0BD94
:10071000684600950481DFE7684600950681DBE7BF
:10072000FFB50D980B9EC10740070A9D0C9C002940
:1007300041D0800F39D000201DE0480000990F5AA9
:100740000199095EC910791A175E09B2BC460D9F5E
:10075000614507DDBF0706E067466F4371437918BF
:10076000214102E07F07002FF6DA11526746C91BCC
:1007700019527046401C8646014609988645DCDBC6
:10078000FFBD480000990F5A0199095EC910791AF6
:100790000FB2115E77438E466943C9192141115248
:1007A0007746C91B19526046401C84460146099889
:1007B0008445E6DBFFBD800F39D000201DE04800F6
:1007C0000199095ECF100099095A791A175E09B28A
:1007D000BC460D9F614507DDBF0706E067466F43D6
:1007E00071437918214102E07F07002FF6DA115298
:1007F0006746C91B19527046401C86460146099837
:100800008645DCDBFFBD48000199095ECF100099E9
:10081000095A791A0FB2115E77438E466943C91996
:10082000214111527746C91B19526046401C84462B
:10083000014609988445E6DBFFBDFFB581B00C9801
:100840000B9D84460E980D9CC1074007002948D097
:10085000800F28D000201DE0019940000E5A009919
:100860008F000299C9590E9FC910711A165E09B2FC
:10087000B646B14213DDBF0712E0115206E06746EB
:100880006E4379437118214111527646891B1952E2
:100890000098401C00900A998842DDDB36E77F070C
:1008A000002FECDAE9E7002717E078000199864687
:1008B000095A0298BE008659F610881B06B2704687
:1008C000115E60460091464369438E192641704689
:1008D00016520099711A19527F1C0A988742E4DB5C
:1008E00014E7800F28D000201DE0810002980E9FA1
:1008F00040580199C61000984000095A711A165EB6
:1009000009B2B646B14213DDBF0712E0115206E04C
:1009100067466E4379437118214111527646891B0F
:1009200019520098401C00900A998842DDDBEDE6E0
:100930007F07002FECDAE9E7002717E00298B900FB
:1009400040580199C6107800095A8646701A01B2BB
:100950007046165E6046009641436E437118214111
:1009600070461152009E891B19527F1C0A988742BB
:10097000E4DBCBE610B55B00304C002A04D0CA079C
:10098000D20F5218D21800E05A182270491E617016
:10099000401EA0702949D0B2C243C91C0A7000226F
:1009A000D2434A70421E8A704242CA7001220871C4
:1009B000131A4B718A71401CC87110BDF8B51F4CD9
:1009C0000E4615460746217803F0F0FC307021787A
:1009D0004843381A2870F8BD002808D0174A937881
:1009E000984204D0002902D05078814201D10120E0
:1009F00070470020704710B50022104B002802D02D
:100A00009C78A04200D10122002902D0587881426E
:100A100000D1521C022A01D0002010BD012010BDBF
:100A2000002101E000BF491C8142FBD37047000058
:100A3000A105000024460010005D004000050000F4
:100A400010B564228030C2810282002901D000F0FA
:100A500003FB10BD10B53E4C0021207802F0C8F811
:100A6000002802D0002001F08BF8207802F070F905
:100A7000012010BD10B5112806D0122803D1354928
:100A8000082000F04FFC10BD32490420F9E7C006F1
:100A900001D5012070470020704700F0D5FA0121F0
:100AA000017000224270841C01720220E0712172E8
:100AB00062721146104601F0B5FF25490870012108
:100AC0002448FFF7BDFF244D0C20697800F01CFB83
:100AD0000021012000F026FC1E4800F041F8287893
:100AE000FFF7D5FF002819D16878002816D01948DB
:100AF00001F09AFE02F0C1FD01F053FD154880306F
:100B00008289C08916B201B20F46304601F0BAFDA3
:100B1000268080B26780A08002F0C1FD69780B203A
:100B200000F0F2FA2878FFF7A5FFFFF793FF0028FF
:100B3000FBD0D1E710B501F0F9FE0548007802F0CE
:100B400035F906490F20C86201F0F5FE10BD00001E
:100B50000B050000B80500000402000080000052F0
:100B600010B500F002F8012010BD10B50446803425
:100B700020891649401806D00821154A01281BD0A3
:100B800002281FD104E07D20000101F039FE19E0A8
:100B90006089062804D0072806D0082808D011E06C
:100BA000117000F0DEF80DE0117000F043F909E07B
:100BB000117000F0C9F905E06089012802D11170B7
:100BC00000F03CF800202081012010BDFEF7FFFF5F
:100BD0000402000070B5049C5A43002C0BD0002383
:100BE00006E05C00065F0D5FAE4200DD05535B1C56
:100BF0009342F6DB70BD002306E05C00065F0D5FEC
:100C0000AE4200DA05535B1C9342F6DB70BDF0B5D3
:100C1000054600205A438C4603460CE05F006146BF
:100C2000EC5FCE5FA11B00D5311B09B2814200DD14
:100C30000846E9535B1C9342F0DBF0BDF0B587B08A
:100C4000F948F84C0390F848F64A8034029404922C
:100C5000083824214180002141604721017008218A
:100C6000F24F41703878EF4D800001460190803D91
:100C7000104603F08DFB2846019903F089FB2046BE
:100C8000019903F085FB0321052000F03DFAFF20C8
:100C9000F530FFF7C5FE00200690E54C207802F005
:100CA00057F802F083FC6421207801F0A1FF0026B0
:100CB00026E000207400285317E0DE493B780978CD
:100CC0003A784B40DB078A18DB0FD218CB07DB0FD3
:100CD0004243591851184A000121890751182A5BCB
:100CE000095B5118401C2953C0B2D3490978884286
:100CF000E3D3D149285F097803F058FB2853761CC9
:100D000038788642D5DB06980A280DD33B78012235
:100D100029460498FFF77BFF002000903B780122D2
:100D200004990298FFF756FF2946019A049803F0A8
:100D3000C9FAFFF78FFE0698401C06906E28ACD3C8
:100D40000321062000F0E0F9019A0299039803F0CC
:100D5000B9FABA4901200873002100F0E3FA07B09C
:100D6000F0BDF0B587B0B0490491AF49B4480590E3
:100D7000083924224A80002747224F600A7008223F
:100D8000AA4E4A703178890003F004FB0321052044
:100D900000F0BAF9FF20F530FFF742FE0025A44C21
:100DA000207801F0D5FF02F001FC6421207801F0E9
:100DB0001FFF0A2D21D3002419E09E4832780078C5
:100DC00031784240D2074118D20F8918C207D20F9A
:100DD0001018614308184100012080070097081887
:100DE00033780122059901F04FFD641CE4B292486A
:100DF00000788442E1D3FFF72DFE6D1C6E2DCED31B
:100E00000321062000F080F93078019001248A48FF
:100E100002970397009402786420424302230499C6
:100E2000059801F047FD854800210473012000F07A
:100E300079FA94E7F0B585B07B4804907A4824218C
:100E4000083841800021416047210170082141702C
:100E500076487B4F0078734E8400803E21463846AA
:100E600003F098FA2146304603F094FA0321052056
:100E700000F04AF9FF20F530FFF7D2FD0025E80722
:100E800003D002F084FB019602E002F07BFB0197A5
:100E9000674C207801F05CFF02F088FB6421207829
:100EA00001F0A6FE0A2D23D300241BE061485F4910
:100EB00000780B780A784340DB078218DB0FD218E2
:100EC000C307DB0F62431818101842000120800787
:100ED0001018002200920B780122019901F0D4FC35
:100EE000641CE4B2544800788442DFD3FFF7B2FDBB
:100EF0006D1C6E2DC3D30321062000F005F90120DF
:100F00004A4A04E081007358801C7B50C0B21178BB
:100F10008842F7D30020C9B20290039001240191C6
:100F2000454800940278322042430223384604990F
:100F300001F0C0FC02F008FB4048002104730120CE
:100F400000F0F0F905B0F0BDF0B587B03649049176
:100F500035493B480590083924224A80002747221A
:100F60004F600A700822314E4A703178890003F0D0
:100F700011FA0321052000F0C7F8FF20F530FFF734
:100F80004FFD02F009FB0025294C207801F0E0FE1E
:100F900002F00CFB6421207801F02AFE0A2D21D3F7
:100FA000002419E023483278007831784240D20793
:100FB0004118D20F8918C207D20F101861430818C0
:100FC0004100012080070097081833780122059915
:100FD00001F05AFC641CE4B2174800788442E1D363
:100FE000FFF738FD6D1C6E2DCED30321062000F0D7
:100FF0008BF83078019001240F48029703970094F2
:1010000002786420424302230499059801F052FCBF
:1010100002F09AFA094800210473012000F082F9D5
:101020009DE60000D0270040085D004024460010E7
:1010300059050000A10500005C46001004020000F4
:10104000D02600401E4870471D48801E70471C492E
:10105000002072310863704710B51A4902230A78DC
:101060001749002072310A70174A12784A7001221B
:101070008A82CB820A8304224A830A4612232032C0
:1010800093701123D37044228A84104A0C181318C9
:1010900020339B7C401C23770628F7D3002008636D
:1010A0000C490B48086010BD00200A4A0146121D79
:1010B0001318401CC0B219730C28F9D370470000F4
:1010C000DE020000A005000024460010C00200104F
:1010D0009EBF00100002000010B501461E4803F03C
:1010E0005BF9410A1D4A012050601C480023403032
:1010F00003620F23C3620161FF214161816103210A
:1011000051600421016210BD70B5401F0C46144DA2
:10111000030003F042FA081A1A1717170D050817EB
:101120002868844211D00846FFF7D6FF2C600CE0F7
:1011300029225206506BC9B2FF231B0218400843F4
:10114000506302E0002000F01BFD012070BD034948
:101150000F204031C8627047005A620240000052BE
:101160000C0500003D2002490004086370470000A0
:101170004002005510B529214906CA680C239A433C
:10118000CA6002234D4A012807D0022805D003284F
:1011900006D0002000F0F4FC10BD5360484801E088
:1011A00053604848086210BDF8B529246406E16818
:1011B0000C221143E16003260121404D00280DD08F
:1011C000032805D0052805D0002000F0D9FCF8BD83
:1011D0006E6001E0022068602162F8BDA06B03220E
:1011E0000002000A12068018A0632868CF2210406F
:1011F000286035482062206A2122520190432062F3
:10120000206A0122D20390432062206AD2119043C7
:101210002062206A084320622C4F3846FFF700FC0A
:10122000264900204031086013224A608A606E60BF
:10123000216AF522D2019143216228612862244863
:10124000FFF7EEFB172028603846FFF7E9FB372051
:101250002860F8BD70B51F4CA16B002082001219E8
:101260001268401C891A0E28F8D320681A4A2925CA
:101270006D06904217D1E06B184A904213D10029B5
:1012800010D1A0680104E068000201432069014315
:101290006068C0B200F099FC6069A1692863080227
:1012A0000830686370BD402028630D4868630D49AD
:1012B000072000F08AFC70BD002075E74000005256
:1012C000A57F000005780000A0FF00008813000043
:1012D0003075000080C3002010041020130674191C
:1012E00008400000202020000949084808620A48F8
:1012F00008490160074940314160084940170860CA
:101300000649074880390860704700000000C04067
:1013100000ED00E00040404000E400E080E100E03B
:10132000A12000000521042384220907012807D0F9
:10133000022803D004280AD0082809D10B6007E04E
:101340000B60002000BF401CC0B23228FAD30A60F4
:1013500001207047F8B504460A4640782178C04D10
:1013600000020843A1782881BE4B69812E46C11A2C
:101370000127403E984211D009DCBB49401A2CD0CD
:10138000092861D00A2840D00B285FD14AE0012902
:1013900011D0092925D00A2958D128E0E178A07870
:1013A0000902401821796279090412068918411846
:1013B0000C22AE480EE0E178A078090240182179AD
:1013C000637909041B06C9184018911F00293DDDE7
:1013D000A11D921F02F076FF38E0777701F052F8F6
:1013E00034E000210420FFF79DFFB7772EE09C49F1
:1013F0000020F7778039221893780A186032401C51
:10140000C0B213702028F6D320E001F03FF8E07856
:10141000A17800020843A88160792179000208437D
:10142000E88113E0A078002810D1E078002805D1E9
:10143000201D01F014F8A078002807D1E0780128D9
:1014400004D12079002803D001F024F80120F8BD50
:1014500001F01CF8FAE70121C2B2C903401A0004E6
:10146000000E83498300C958002901D0022801D306
:10147000002070478818704730B57D4C030A5D0026
:10148000203C645BC2B2944202D80020088030BD88
:10149000784D9B00EB58A41A9B1820380C800C2820
:1014A00001D2A8688318184630BDF8B5724E756A27
:1014B0000020C043F062E80501D5704824E0A8068A
:1014C000800F22D06C4C403C6168C807FCD0674854
:1014D0000C380078122803D100210820FFF722FFE2
:1014E000644F2846083F397800F019F80220206040
:1014F000012020600C2020626148A06261482062C7
:1015000000203870FF2001303062F8BD10B56C202B
:1015100000F041F8574900200839087010BD38B56F
:101520005548574D4038406AFF218000800C0131FA
:101530000C1A68782978000208434E490839486037
:10154000022C0DD025DD4849411A20290CD2FFF785
:10155000ABFDE1B22846FFF7FDFEFFF7EBFA18E01E
:10156000214600F039F814E001210903884210D225
:101570006946FFF781FF00280BD069460988A41E41
:10158000A14201DD69460C8069460A88A91C02F067
:1015900099FE012038BD30B5842105221207116063
:1015A00001231361002515623349022440390C6080
:1015B0000B600C610B617F231B021843D0610C2070
:1015C00008622F4888622F4808622B48E11EC162DA
:1015D000C562E101016230BDF8B509260446B601D5
:1015E0000025801B022808D200210420FFF79AFE64
:1015F000FFF72AFD0019801B1CE001200003844234
:1016000004D2A0B26946FFF737FF13E0A121261AE2
:10161000C9008E4206D200210420FFF783FE1A483B
:10162000354609E00121C903611A814216D2A0B2F0
:10163000FFF711FF002811D041190F480422026062
:101640000D4B0222403B1A6101221A6105231B0740
:101650009A6081600D490160491E0160F8BD00007B
:10166000380600000C08000000080000100200000E
:10167000D445001018050000C000005030000020C4
:101680004C06000009000001005D00400900FFFF5A
:101690000120704710B5827B042A01D0022A21D094
:1016A000002315229206046894614468D461936013
:1016B000037B447B5B1E1B04641E2343D3600389AE
:1016C000847B1B04234313614389807B1B040343F6
:1016D0005361012090621060002902D050680028F8
:1016E000FCDB10BD0123DCE70121152080068162AF
:1016F00001627047F3B583B00E46FFF7A5FC2924BD
:1017000003980025640601280BD0022809D003287D
:1017100007D004286DD0002000F032FA012005B077
:10172000F0BD394F786900903146384802F034FEF8
:10173000E96B0291296C0191216A490849002162F3
:101740003349721C01D132492031226A0A43226294
:10175000304A1562FF23D36239463D612E4AEA635F
:101760002E4A2A64A268FE231A40A260226A02233B
:101770001A432262002200BF00BF00BF521C322A5F
:10178000F9D3226A01239B021A432262012767626E
:101790004861886107220A610398032816D0304601
:1017A0000099FEF78DFE206A000C00042062206A7A
:1017B0003843206265620298E863019828641948FA
:1017C00017490160134804210162A7E70098761CBD
:1017D0000BD0154B236230BF256251231B061D60C1
:1017E000486188610A61A760DDE70F4B0933236216
:1017F000F2E70C497D2000010D60A06103206061CB
:10180000012060618AE7000000E000E050C30000B2
:1018100084FB00008000005203010000070100006B
:10182000E120000000E100E0A67F0000FEE72920A3
:101830001D4940060162012202600021416182606F
:101840000F22026101613F21C161FE21C160704729
:1018500010B5FEF73BFE10BD10B501F09CF8134B20
:10186000134A0021134801F0A0FB01F0B7F810BDA6
:1018700010B5FFF7EFFC00F095FFFFF71DFDFFF738
:1018800071FCFFF764FCFFF72FFFFFF73FFEFFF748
:101890002BFD00F081F901F0BDFE01F055FEFFF7D0
:1018A000DBFF012010BD0000A07F0000680A0000DF
:1018B00009C800009B0A00100A4603467047FEE76D
:1018C00030B503460020AD4C01465A56920012191D
:1018D00052684D00AA40491C1043C9B21029F4D3E4
:1018E00030BDF8B50F4604461D4616461021104679
:1018F00002F04EFD06988078A04254D80699C97827
:10190000A14250D3201AC1B20024E878AA7803E09B
:10191000091A1319C9B2DCB28842F9D9601E10182D
:101920002B7AC0B2834204D8981AC4B2601E101831
:10193000C0B2002F0AD0012F0FD0202833D3202C83
:101940001FD22022121BD2B200241DE0102C2AD25A
:10195000102800D30F20002223E0202C23D21028AF
:1019600021D3102C04D21022121BD2B2002402E088
:10197000103CE4B20022202801D30F2011E01038DF
:1019800003E00022203CE4B22038C0B209E0EB784A
:101990006F685343FB18CB5C3355641C521CE4B294
:1019A000D2B28442F3D9F8BD78B56C4603462170B3
:1019B000002062701C0101466E46012573567F228D
:1019C000002B04DB1A1B520052B2002A02DB2B460A
:1019D00093401843491C49B20229EFDB78BDF0B5AA
:1019E0001746002401220E4605468A5687B0315715
:1019F0002046FFF7D9FF0590202D08D2102D02D2E6
:101A00006800012484400598204307B0F0BD3A786F
:101A1000AA4212D87878A8420FD30020717A03E046
:101A2000401CA400C0B2641C8142F9D8A81A4843E3
:101A300041002046091D8840E7E7334601AA0021FE
:101A400028460097FFF74DFF01A8FFF739FF0599DA
:101A50000843DAE7F0B5174601220E460546002492
:101A60008A5687B031570120FFF79EFF0590202D41
:101A700008D2103D102D02D2680001248440059840
:101A80002043C2E73A78AA4217D87878A84214D3FC
:101A90000020717A03E0401CA400C0B2641C8142A3
:101AA000F9D8A81A484341001C3902D4204688407E
:101AB000ABE749422046C840A7E7334601AA0121C7
:101AC00028460097FFF70DFF01A8FFF7F9FE0599DB
:101AD00008439AE7F0B5944601220F4605460024D4
:101AE0008A5685B039570220FFF75EFF0646202D43
:101AF00016D360460278AA4218D84078A84215D377
:101B00000020797A03E0401CA400C0B2641C81422A
:101B1000F9D8A81A484341003C3903D420468840EC
:101B200005B0F0BD49422046C840F9E76046009044
:101B30003B4601AA02212846FFF7D3FE01A8FFF782
:101B4000BFFE3043ECE770B505460C46007AA97835
:101B50004018401E02F02AFC697A064608461F30EB
:101B600002F01AFC2030A070E97871434118491E38
:101B7000E17020212170401E607070BDE4450010AE
:101B8000002800D1FEE7704710B50022D24309219A
:101B9000FD4802F0D8FB10BD10B5FFF7F5FF00219E
:101BA000084600F03FFFF949487010BD704710B576
:101BB00000F0BCFE0120552109068862F3484078F8
:101BC00001F0F4F800F0B7FE10BDF04A107051605B
:101BD0007047F0B54178012910D000218C460022D1
:101BE0000178FF24EA4D1346002905D001290AD0C7
:101BF000022907D0032903D02A4604E0FF21EDE79C
:101C0000002400E0FF2300210F468D05E14E2D0C3E
:101C1000AD196F626646AE626C602A62AB60491CA9
:101C200089B20429F1D38178D84BCA00DA495B68BC
:101C30008A581B021B0A1A4329235B069A63807881
:101C4000C0004018D54940680860F0BD10B5017962
:101C5000D34B00290BD0012908D1002104688A0048
:101C6000A458D2181462491C0829F7D310BD0020CB
:101C700001468200D2181162401C0828F9D310BD19
:101C800070B5027A8A420DD900220C23C54C594303
:101C90009300CD1846681B1975591D60521CD2B2AD
:101CA000032AF5D370BD10B50020FFF769FF10BD02
:101CB00010B5BB49028B8031521E0A60428B521E06
:101CC0004A60026A521E8A60036AC269D21A521EB0
:101CD000CA60B349C289C031521E4A614269521E6C
:101CE0008A6143690269D21A521ECA61828C521EED
:101CF0000A62C28C521E4A62C26A521E8A62C36A59
:101D0000826AD21A521ECA620388A74A5B1E1363F4
:101D100043885B1E536383685B1E936384684368D8
:101D20001B1B5B1ED363028E521E0A63428E521E21
:101D30004A63826B521E8A63426B806B101A401E8C
:101D4000C863012010BDF3B581B00826974D9848AF
:101D5000019902F021FB47087F007D207442C000FA
:101D6000009747439348944A60433946801802F0ED
:101D70001DFB0199081A00D54042A84202DA264606
:101D800005460836641C082CECDB029806700098A7
:101D9000FEBDFEB5054608460E4624300C460F46ED
:101DA00000910190303618340C3768883E31FFF7C7
:101DB000CAFF60604008A0602878297940186080D8
:101DC00001202080297A6A7A8A1800998A606188BD
:101DD0004A0000994A8061684A0800994A60297A55
:101DE000521C521A00990A8030800F207080A0681F
:101DF000801E00097060697902F0CEFA70604008B8
:101E0000B0606979A06802F0C7FA0146A0882A7814
:101E10005043401C09180122B088AA565043401C68
:101E2000091A0198491E01806979A06802F0B4FA84
:101E3000014601984160B1680198491C8160287988
:101E4000697948434100019841806068B8606068E2
:101E50006288411C521C504328300818786065681D
:101E600040192946401E02F097FA6843786061687D
:101E700089084018786060887880FEBD484A10B5AF
:101E8000403A116B04468079002800D08020090E6A
:101E900009060143712001431163E1683C20085E9B
:101EA000A27A904205D02046FFF773FFE168A07A3E
:101EB0008887E068FFF7FCFEE0682030817F0A2019
:101EC000FFF722F910BD374902680A6142680A62C9
:101ED00080684862704730B54179FF224904120298
:101EE000891A82792E4B1143403B59632E490024B5
:101EF00040310C6102792146002A02D0012A1DD10D
:101F000009E000200122451E9A639D63801C80B277
:101F1000FF28F9D912E0002107E002684D00525B6A
:101F20009A6352429A63491C89B242798A42F4D830
:101F30001006FF21C00D0131081A81B2002002E015
:101F40009C63401C80B28842FAD330BD7CB5064603
:101F50006946FFF7F8FD144D00244035E0B26A46AB
:101F60003146FFF73CFD2860E0B26A463146FFF794
:101F700071FD6860E0B26A463146FFF7ABFDA860CC
:101F8000641C802CEAD37CBD6C0A0000580500005C
:101F90005555000000004053F44500104000005229
:101FA0008000005580030055C001005540420F00DD
:101FB000409C0000400D0300005A6202FE4A7F214F
:101FC0001161C3E730B5FC4C0022803C9300CD5832
:101FD0001B191D64521C052AF8D300218A0083585E
:101FE00012191360491C0829F8D330BD01684068F4
:101FF000E8E770B5F14E002293001C46456818349E
:102000002D599C19256445681C33EB582365521CD7
:102010001206120EF0D0027A8A4212D955250022F9
:102020002D064C01910046686318F6584B191E6343
:10203000466836190C3171581965521CD2B2032A00
:10204000F0D370BDFEB5C7680446B869417A08464A
:102050001F3002F0A1F92030C0B201902088002585
:1020600080B20090207C2E46030002F096FA080A07
:1020700014051413110F0C1400980125000400908E
:1020800009E0002000E02020019004E0012602E0A9
:10209000022600E00326F868C94F00280FD002226C
:1020A000417ABA56914201D1090608D50021FFF7BD
:1020B000A0FFE068C068407A4006400EB870E06853
:1020C000806800280ED00122017ABA56914201D1CF
:1020D000090607D5FFF78AFFE0688068007A4006A6
:1020E000400E7870E068806900280ED00522817A61
:1020F000BA56914201D1090607D5FFF75FFFE068A4
:102100008069807A4006400E7871E068C0690028D6
:102110000ED00622C179BA56914201D1090607D5DF
:10212000FFF7D9FEE068C069C0794006400EB8717B
:10213000E068006A00280ED00722017BBA5691425F
:1021400001D1090607D5FFF7BEFEE068006A007BF3
:102150004006400EF871E068006800280FD0002D9E
:102160000DD1817A7A57914201D1090607D5FFF73F
:1021700085FEE0680068807A4006400E3870E068AE
:102180004068002811D0002D0FD00021807A7956A8
:10219000884201D1000608D50020FFF7F1FCE06875
:1021A0004068807A4006400E3870E0680069002878
:1021B0000FD00322417ABA56914201D1090608D5BF
:1021C0000021FFF75DFDE0680069407A4006400E9F
:1021D000F870E068406900280ED004224179BA56B0
:1021E000914201D1090607D5FFF730FDE06840694B
:1021F00040794006400E3871E068406A00280ED0F1
:102200000822C178BA56914201D1090607D5FFF7D5
:10221000E0FCE068406AC0784006400E38720198E1
:1022200001230106E07A1B040204D21A00021143C2
:10223000FF3801380143607AA27A8018401E0143BA
:102240005520000681605F4AA9078918EA031143F7
:1022500032051143C16019020161A188490441613D
:10226000009981610021C9438162544AC03291635F
:1022700001210162504BE27A4033521E5A610160E3
:10228000FEBD10B50020FFF77BFC012010BDF0B5AE
:1022900087B00546084624300690243003900C3061
:1022A00002900A460C30059101900E460C460F46EE
:1022B0003C320C3004920090303618340C37688869
:1022C0007A31FFF740FD60604008A06028782979E6
:1022D000401860808020208061688A080599163A3D
:1022E0008A6061884A0005994A8061684A080599B0
:1022F0004A6005998B220A806168049A8908916076
:10230000049A61885180049A61685160049A10802F
:102310006068810803988160039861884180039810
:10232000616841606068410803988031018060689D
:1023300081080298143981606088410002984180C8
:1023400060684108029841606068810802988A319B
:10235000018060684108019881606188019841802E
:102360000198616841606068810801986C31018062
:1023700060684108009881600098618841800098F9
:1023800061684160606880084100411800986C31C4
:102390000180012030800F207080A068801E00091D
:1023A0007060697901F0F8FF70604008B060697989
:1023B000A06801F0F1FF07E000010055000300559F
:1023C0006C0A0000430300200146A0882A7850438D
:1023D000803009180122B088AA565043401C091ABF
:1023E0000698491E01806979A06801F0D5FF014671
:1023F00006984160B1680698491C8160287969791E
:1024000048434100069841806068B860606862880F
:102410000146521C424340088031101808182830E9
:102420007860656840192946401E01F0B5FF684391
:10243000786061688908401878600120788007B06A
:10244000F0BD000010B501462422CB48FEF7F2F89B
:10245000CA480021017141710160817110BDC649F6
:1024600002888A814288CA8182880A83C2884A8314
:1024700002890A82408948827047BF487047BF4836
:1024800000797047BD49012048717047BB49012060
:1024900088717047B949002088717047B7488079C2
:1024A0007047F0B581888279B34B514309B28C46AD
:1024B00000211A462032964620E0046800224D0092
:1024C0006519144605E06600AE5FB21886883419B7
:1024D00024B26445F7DBA94C2479022C13D01D6883
:1024E0008C000C272E59DF5F7E430E27DF5F57439A
:1024F000BA01B21892112A51491CC9B27246127817
:102500008A42DAD8F0BD92011C688D006251F3E76F
:1025100070B5034600200146994C9A4D07E08E00A5
:102520004A007619A25E366D72431018491C994212
:10253000F5DB70BDF0B5904A00201746203712E059
:102540008100536814685B58645810261C1B9368FC
:10255000965F5D5875431226965F6643AC19A411C9
:10256000401C5C50C0B239788142E9D8F0BDF0B56A
:10257000814A0020174620370FE053688100182554
:102580005C58555F1A266C431568965F6D58754305
:102590006419A411401C5C50C0B239788142ECD857
:1025A000F0BDF8B5754D744C2879224602262032CC
:1025B000002862D0022849D0734F032811D0042884
:1025C00021D1FFF7B7FF3878FFF7A2FF6F490968FD
:1025D00001F0ECFE29460C3908606879002811D119
:1025E00022E0FFF7A7FFFFF7C2FF3878FFF790FF61
:1025F0006649096801F0DAFE60490C3908606879BB
:10260000002801D02E71F8BD2868002803D0A979D0
:10261000002916D104E01E20205E286004200EE070
:102620001C20205E2860F8BD2868002803D0A97906
:10263000002906D007E01C20205E286003202871B6
:10264000F8BD401EEEE71E20205EEBE7002006E00E
:102650008100236866685B58401C7350C0B21178D3
:102660008142F5D800206871A879002802D00420A2
:102670002871E8E703202871D2E71178A068FDF7F8
:1026800077FFBFE7F8B584463C4801260C38076859
:102690003F4805460782603DA87A02280FD1AE72F6
:1026A00000223B4B06205043803BC018438F3948E3
:1026B000C4685000521CD2B223520F2AF1D32F4CBF
:1026C0000C3C012F01DA266003E03348874200DD2D
:1026D0002060A87A002813D02D488038808E0028EA
:1026E0000ED0206801280EDB6246521C01D14A1C24
:1026F0000BD082B2604689B280B201F0C0FD20608A
:102700002068012803DA266005E0266006E02249F9
:10271000884200DD2160A87A002819D005CC083C49
:10272000811A00D5111AFF223C32914201DD60600E
:1027300002E0A068206060680F4A1623D35E21681B
:102740004B431421515E4143581880112060A06012
:102750002068F8BD114910B5884204DC80000321CF
:1027600001F024FE10BD4E214843642101F01EFEFD
:102770000B49401810BD0000780A00006C050000ED
:10278000264600100027004024460010584600103E
:10279000C80200003C0C0000FFFF0000666600005D
:1027A00052380000FF2053221206506004211162AB
:1027B000506200219162D16210630C4B58600C4A48
:1027C0001A6259629862094B403358601A62596222
:1027D0009862064B803358601A6259629862034BC4
:1027E000C03358601A6259629862704700004053C3
:1027F0005555000010B501460120FEF749FF10BDF8
:1028000010B501460420FEF775FF10BD10B5014656
:102810000120FEF76FFF002010BD10B50146032018
:10282000FEF768FF002010BD70B5044603210520A7
:10283000FEF76AFCFF20F530FEF7F2F8374D2878F6
:1028400000F086FA00F0B2FE6421287800F0D0F99A
:10285000002802D00020FFF793F903210620FEF79D
:1028600053FC2F4801780078C907C90F0818C3B274
:102870002D492C480A7800780021FDF70CFF206CC8
:10288000401C2064012070BD70B5049CDD0703D09E
:10289000002C01D05B1CDBB25A43002307E09C00F4
:1028A0005E000D59865FAD195B1C0D519BB29342C2
:1028B000F5D370BDFFB581B006460B980D9C0A9A02
:1028C000C50703D0002C01D0401CC0B2424315B252
:1028D000022B02D0002400911CE00F4600240AE0E5
:1028E000A00030580C998840039901F05FFD610009
:1028F000641C785224B2AC42F2DB05B0F0BDA700F4
:10290000F0590C998840039901F050FD0099641C1E
:10291000C85124B2AC42F2DBEFE7000059050000D9
:1029200024460010040200005C46001010B5334835
:10293000FDF732FE10BD10B53048FDF737FE2F4CC5
:10294000207800280AD1A078012807D16078401C9F
:10295000607000F0FFFA6078401E607010BD10B526
:10296000264C6078012802D06078401E0BE0244895
:102970000078012801D100F05DFAA078012801D18A
:1029800000F0E8FA0020607010BD1C484178491C36
:1029900041707047E3E710B51B481A4941618161F6
:1029A000072101611948C169FF2212061143C16163
:1029B000016A12121143016200F078FA0F4841785F
:1029C000491C4170124B65221C469201002111489E
:1029D00000F0EBFA2046FDF7F7FD10BD10B50F49EA
:1029E0000D4808600E4908600121417100F096FA17
:1029F000FFF7B5FF10BDFF201430704774050000CD
:102A0000770500001416050000E000E000ED00E08E
:102A10008C0B0000E92D0010CC0A00008805000096
:102A20008405000070B5EB4A06461078401C107013
:102A3000E94D0024A86801231A46A24010420ED195
:102A4000A3401843A8602868A1400843286068682C
:102A5000A64030436860FFF782FF204670BD641CCB
:102A6000E4B2202CE8D3FFF77AFFFF2070BD10B549
:102A70000268D94C00234168002A08D000290FD0F1
:102A8000516006C808381160C068036110BD002994
:102A900003D0216141680B60F6E7E3602361F3E74F
:102AA000E26001684B60EFE770B50546FFF7DFFFB6
:102AB000EC686069401C02D0204600F044FB002016
:102AC000C0432061C5480068844202D10120607182
:102AD00002E0204600F0FFF9286870BD70B50E4690
:102AE0000146BF48BC4D0078002801D0032070BDCE
:102AF000B84A1078401C107001248C40E86816E039
:102B00008168214212D0002E02D0012E04D00DE0A7
:102B1000FFF725FF042070BD027C002A01D1A142ED
:102B200002D1FFF7C1FF02E0A143816000680028E5
:102B3000E6D1A868A043A8602868A0432860686818
:102B4000A0436860FFF70BFF002070BD10B5A249DD
:102B500001220B68824013420CD09E4C2078401C0E
:102B6000207008464068104083430B60FFF7F7FE73
:102B7000002010BD0C2010BDF8B515460246964841
:102B8000944F03683E781C461440761C3E700646FF
:102B900077681E4616403740BB43002C01D0012900
:102BA00009D0944201D1002905D0FFF7D8FE0C20AE
:102BB00028700020F8BD0360FFF7D1FE00202870C8
:102BC0002046F8BD10B5854C834B24682061C46055
:102BD0008160027419690022002905D00860196912
:102BE00002604160186110BD02604260D860F9E780
:102BF000F3B57B4985B00978002902D0032007B0DE
:102C0000F0BD744F3978002901D01520F7E73978E5
:102C1000491C3970704C012521688540294204D037
:102C2000606828408143216028E06C482946066896
:102C3000069800280DD002226846FFF7C3FF3046F1
:102C4000069900F04FFAFFF78AFE3069002819D084
:102C50000AE002226846FFF7B5FF02207071614961
:102C600001200870FFF77BFE002030613878401C9F
:102C70003870606805402068A8432060FFF76FFE49
:102C80000020BCE70520BAE7FFB50646544885B0EA
:102C900000781D46002801D0032004E04D4802784A
:102CA000002A02D01520187050E04A480278521CC1
:102CB0000270494C2068224653680246074632405B
:102CC000134037409843002F01D0012923D0B74249
:102CD00001D100291FD041480A46076807983146AC
:102CE000002868461FD0FFF76DFF3846079900F0AF
:102CF000F9F9FFF734FE3869002825D00020386143
:102D000034480178491C01703348076861683846C7
:102D10003740394088432060FFF721FE00202870AB
:102D2000384609B0F0BDFFF74DFF022078712D49FC
:102D300001200870FFF713FE002038612548017854
:102D4000491C01702768E1E7052028700020E8E7AA
:102D5000214901230A6883409A4300200A60704792
:102D600070B51D4C012521688540294201D0002005
:102D700070BD2943174821600178491C0170E06843
:102D80000FE0017C22680029816807D0114207D03A
:102D9000FFF78AFE6168294203D004E09143F7D02F
:102DA00000680028EDD1FFF7DAFDE0E710B509492A
:102DB000097800290AD001460022032000F018F803
:102DC000002801D0002010BD122010BDFFF7C8FF61
:102DD00010BD0000750500009C0A00008805000079
:102DE000740500007605000030BFFDE7FEE7000037
:102DF000F8B514460D460646FDF7E4FB294F387832
:102E0000032803D3FDF7DCFB0020F8BD2548FDF7C0
:102E1000C3FB7978244B012240181A70032101F07A
:102E2000BBFAC800C3191E715D719C60FDF7C8FB39
:102E30000120F8BD7CB51C4D00266878012802D120
:102E400000F0E9F96E70A878164C01281ED100F048
:102E500001FBAE701AE0FDF7B5FB6078C1000919FF
:102E60008A684968009101920321401C01F094FA9C
:102E700061702078401E2070FDF7A2FB6846007844
:102E8000032803D168464078FFF76AFF20780028BE
:102E9000E1D1FDF797FB2078002800D12E70FDF7D7
:102EA0008FFB7CBDB00A0000770500008848002138
:102EB000024620320323817143718261491CC9B2E9
:102EC000203020320229F6D38171002181618149AD
:102ED0007F480860704770B50379002141717D49D2
:102EE00001244A687C4D002A07D016799E4206D9F3
:102EF0002C708261D061486070BD2C70FBE79169D5
:102F0000002904D00C799C4201D80A46F7E7816178
:102F10009061C2610029EFD0C86170BD10B58269AF
:102F20006C4C0023C169002A0AD000290ED0002A67
:102F300008D08A618169C269CA618361C36110BDB9
:102F4000002901D08B61F9E7636010BD6260836185
:102F5000D36110BD70B55F494C68C868002C23D0A0
:102F60008A68904220D15D4A1278012A1CD85C4AB6
:102F70001278002A18D1584B1A70467903792279B1
:102F80000125012E05D08C6065712046FFF7C6FF34
:102F900008E09A4208D28C60FFF79DFF2046FFF7B9
:102FA000BDFF6571FDF714FB70BDFFB5494C81B0E5
:102FB000E0681646D7B2002831D1049A019800F093
:102FC0007FFA054645480178491C01702068214672
:102FD000002820D0044680690860FFF7C0FC204626
:102FE00004001CD0256000202771C0436061019857
:102FF000A0600498E0600020A061E0612061002EE4
:1030000010DB36480178491C01702046FFF763FF4A
:10301000FFF7A5FC08E0FFF7A2FC0020E0E7FF2097
:1030200005B0F0BD02206071A079F9E710B5284A1B
:1030300041018C18002804D060792849012802D069
:1030400006E0142010BD0A78002A01D0152010BD1A
:103050000A78521C0A70002802D0022804D00EE020
:103060002046FFF75BFF0AE06069401C02D0204663
:1030700000F069F82069002801D0FFF7F8FC032070
:103080006071154901200870FFF769FC002010BD30
:103090001048C0688079C9E710B50D4A400184180E
:1030A0006079032801D0002010BDE268A06800F01C
:1030B00007FA206009480178491C01702046FFF793
:1030C0000AFFFFF74CFCEEE70248C06880797047C2
:1030D000CC0A00007C0500007605000075050000A4
:1030E0007405000030B500292CD05F4D2C68002CF1
:1030F00001D022461AE0416128601EE0D369002B0E
:1031000005D09861D369C3618261D06102E08461B6
:10311000E061286082695369591841615369591AFD
:1031200051610AE09369002B04D01A465369C91A09
:10313000F8D5E3E7C26190614161022141714B49D9
:103140000120087030BD10B5C26900238169002AD2
:1031500010D000291CD091618169C269CA6181695E
:1031600044694A6912194A618361C3610021C943F4
:10317000416110BD3C4A002908D011604A69446988
:1031800012194A618169CB618361EFE71360EDE752
:103190009361EAE7364903C9704710B535490978A4
:1031A000002901D0032010BD411C07D00028FAD00F
:1031B00031490A78002A03D0152010BD022010BD25
:1031C0000A78521C0A7001462C480068FFF78AFFF3
:1031D000FFF7C5FB002010BD70B50D462849400122
:1031E00044186069401C10D023480178491C0170C4
:1031F0002046FFF7A8FF002D09D029462046FFF7FB
:1032000071FFFFF7ACFB002070BD112070BD2046A0
:10321000FFF761FEF5E7F8B5134E3468002C16D0C1
:103220000027FF4300256069002810D1206900288D
:1032300001D0FFF71CFC6761A06930602046A561E2
:10324000FFF749FE3468002C01D0E561EBE7F8BDDB
:1032500009480078012805D90A49012008700A495F
:1032600008707047D7E700008C0500007605000065
:103270009805000074050000750500008805000031
:10328000CC0A00007705000078050000182170B511
:103290004843864940184268002A2CD0844B19784C
:1032A000491C1970834D2C68002C01D0214619E06F
:1032B00028601EE04B69002B05D018614B69436103
:1032C0000161486102E004616061286001694B6846
:1032D0009A1842604868801A48600AE00B69002B1F
:1032E00004D019464B68D21AF8D5E3E7416108616A
:1032F0004260FFF734FB70BD18216C4A10B54143A2
:103300006B4B89181A78521C1A7018246043674C4A
:103310004A69001900230069002A0FD000281BD039
:10332000106108694A69426108694C68426812196B
:1033300042600B614B61FFF712FB10BD5D4A002834
:1033400008D01060436108694C68426812194260F5
:103350000B61F0E71360EEE71361EBE7FFB554494B
:103360000746087881B01646401C0870514A002470
:10337000506801252946A140014218D12946A140A3
:1033800001435160FFF7EBFA2046182148434749B3
:103390000C5440184770857002998660416004990A
:1033A000C160002141610161204605B0F0BD641C8F
:1033B000E4B2022CDED3FFF7D2FAFF20F5E71821A2
:1033C0003A4A10B5414389188A78002A03D000226E
:1033D0008A70FFF75BFF002010BD10B51821334A3B
:1033E00041438C18A178012903D0FFF785FF012004
:1033F000A070002010BD10B5044618202B49604372
:1034000040188078002802D12046FFF775FF294830
:1034100001214268A1408A434260002010BD002281
:103420000A7018214843214940184068704710B578
:10343000044618201D4B6043C3189A605960987861
:10344000002805D12046FFF757FF2046FFF71EFF53
:10345000002010BD70B5174D15E06078002802D02F
:10346000012810D105E02078FFF746FF0120A07069
:1034700007E02078FFF740FFA06860602078FFF742
:1034800005FFE06880472C68002C02D060680028A7
:10349000E3D070BD06480078012805D9064901200F
:1034A0000870064908707047D4E70000900B0000D0
:1034B0007505000090050000770500007905000003
:1034C00001231B061360131F1860181F0123DB4321
:1034D0000360143801602038704710B5154908782A
:1034E000401C08701448002301684268491C5A4176
:1034F00006C012481C460068002808D0416901290E
:1035000002D9491E416102E04461FFF7A1FE0C4867
:103510000068002808D04168012902D9491E41608D
:1035200002E04460FFF7B6FF064901200870FFF78C
:1035300016FA10BD75050000980500008C05000006
:1035400090050000760500002C482B49C16024310D
:1035500081600C3181614039C1614C31016228497F
:10356000002206C0244A80234C328260543AC26052
:103570000A1FC2618A7A1A438A72C069C1781943E4
:10358000C17070471C481D490C30C86070471A480C
:103590001A491830C860704718480021426A917073
:1035A000406A8022C1781143C170704700B585B070
:1035B00001208007009001206B46D88011481249F5
:1035C00000780A7883184240D207D20F9A186B46C7
:1035D0009A800978997258720C480078D8720C4811
:1035E0000078187205480390002018746846FEF7AA
:1035F00029FD05B000BD0000D0460010000C000001
:10360000A8050000A1050000244600105C4600103B
:10361000A005000000B5474889B0007808A90870E7
:1036200045480090444869468030019043480290E4
:1036300043480088C8814348008888814248008800
:10364000488242480088088241480088C882414830
:103650000088888240480088488340480088088362
:103660003F48008888833F480088C8830846FEF7A3
:10367000E9FE00F083F809B000BD1CB50120800709
:1036800000902C4869460078401C40084000888023
:103690003548007888716846FEF703FF1CBDF1B518
:1036A000324800788F2843D131482422083842809C
:1036B000002242604722027008221E4E4270327879
:1036C0001D4F002054002A49503F17E08200D319B3
:1036D0001B6D45001B124B53174B35783033D318F5
:1036E0001B6D2D181B126D004B53144B503BD21801
:1036F000126D231812125B00CA52401C327890429D
:10370000E4DBD0B20622504345183078FEF700FFC4
:103710001849096800F04AFE288000996019490894
:10372000018020181449018000210120FDF7FAFDD5
:10373000F8BD0000244600105026004050270040ED
:1037400046460010444600104A4600104846001005
:103750004E4600104C4600105246001050460010D5
:1037600054460010564600105C460010040200004B
:10377000085D0040584600100903000030B587215D
:10378000FE48C90001800F21C9014180102101714B
:103790001D214171FA498160FA49C160FA49F74B2C
:1037A000016103201433187005205870F7485860E1
:1037B000F748986018461030D860F648C07F5A28FD
:1037C00007D1F44820300178A52902D14178AA29EF
:1037D00008D0002001214400DA68401C11530F2852
:1037E000F9D330BD4188EC4A518680889086E94DF6
:1037F0000020263505E041004C1924888918CC8624
:10380000401C518E4C0009198142F4D80020062139
:10381000414389184500DC68498F401C61530F28DB
:10382000F5D330BDFFB504461A201825205E655F2C
:103830000A23421B0820205EE35E0E1A1B1A81B089
:10384000724319461046009300F0B0FD45191E2042
:103850001C27205EE75F0099C01B704300F0A6FDA7
:10386000C019421B14211020615E205E039B091ABF
:10387000181A504300F09AFD41190498016005B0F0
:10388000F0BD30B5039D049C854201DA002004E0C0
:103890008D4201DD022000E00120944201DA002186
:1038A00004E09C4201DD022100E001214A00891868
:1038B000081830BDFFB587B00899019100901646F1
:1038C000844658789A681C4610182038C07F129F8A
:1038D0004100F068119D435A117862684900405ACE
:1038E0008646207810182038C07F12784100B068D2
:1038F0005200415A805A7246FFF7C3FF03900020DE
:10390000C0430190207800210090401E059014E0F3
:10391000B268636804935B5C5B00D05A604509DC65
:1039200004984B1CC35C5B00D05A604502DB48B274
:1039300000990190491C0598C9B28842E8DC002032
:10394000C0430090617800200491491E069116E062
:10395000F168A2680592125C52008B5A089A934251
:103960000ADC059B421C9A5C52008A5A08998A42DA
:1039700002DB40B2009004980699401CC0B281421C
:10398000E6DC00200199491C15D0C2070199D20F2D
:103990005118C9B202916368B268595C4900525A21
:1039A0004100CB191A8149190A8102992954626888
:1039B0000299515C39540099491C16D08107CA0FED
:1039C00000995118CBB2A268F168D25C9C465200B3
:1039D0008A5A4100CB191A8249190A82634629186A
:1039E0000B71A1683A18C95C11710199491C1DD06D
:1039F0000099491C1AD0217862465143029AE36823
:103A0000891849005A5A41004B191A838E46A168F9
:103A10006246895C3379029A594363689A5C3369D8
:103A200089184A0071469A5AC9190A83401CC0B2C3
:103A30000428A7D303980021030000F0AEFD09FE7F
:103A400087FD064142FCD1FB410000206268B1685D
:103A50001278430052008A5A59190A8100222A54C6
:103A6000009A9E46A368121894469A5C5300F26826
:103A7000D25A0A8262462B181A7123785A43E36895
:103A800052009A5A0A830A897346D9190A816268D0
:103A9000830012783A54109A9A18528A0A82109A1D
:103AA0003B18724452791A7133795A433B5C401C7B
:103AB000D21852003369C0B29A5A0A830228C5D379
:103AC000D7E0002022786168430089182039C97F37
:103AD000B2684900525A59190A8122789E46521EEC
:103AE0002A54009AA368121894469A5C5300F2680C
:103AF000D25A0A8262462B181A712378521C5A43F2
:103B00005200E368921E9A5A0A830A897346D919A9
:103B10000A8123786268D218203AD27F3A54109AE8
:103B200083009A18128A0A82109A3B1872441279FA
:103B30001A7133795A433B5C401CD21852003369E6
:103B4000C0B29A5A0A830228BCD392E00020019A9C
:103B5000616812189446895CB2684900525A410063
:103B60008E4649190A8162462A54A268F36812787F
:103B700052009A5A0A8200232A180FE0280C0000EB
:103B80009C470010BC470010F6470010964B0010F1
:103B9000994B001080BF001048020000137162466C
:103BA000E36852009A5A0A83109A73467244128943
:103BB000DB191A81109A125C3A54098A1982A16899
:103BC0003A1809781171327951433A5C401C8918CE
:103BD00049003269C0B2515A19830228B7D348E06C
:103BE0000020019A616812189446895CB268490005
:103BF000525A41008E4649190A8162462A54627817
:103C0000A3689A18203AD27F5300F268D25A0A82E7
:103C100063782A185B1E1371637822785B1E534306
:103C200062469A18E36852009A5A0A83109A7346B9
:103C3000724403E07DE062E04AE038E01289DB197B
:103C40001A81109A125C3A54098A19826278A16822
:103C500089182039C97F3A181171327951433A5C79
:103C6000401C891849003269C0B2515A1983022890
:103C7000B7D30398002805D0022803D0062801D026
:103C8000082812D128893881288A388229786068E2
:103C9000405C38702A79A168895C39713279514366
:103CA000081831694000085A38830BB0F0BD6268CB
:103CB000B06812785200805A28812970A268F06892
:103CC00012785200805A28822971E06800884FE0FB
:103CD0002278606880182038C07FB2684000105A8F
:103CE00028812078401E2870A268F068127852005F
:103CF000805A288229712078E168400036E06268A5
:103D0000B06812785200805A288129706178A068C2
:103D100040182038C07FF1684000085A2882607837
:103D2000401E287160782178401E48434000E168B9
:103D30001DE02178606840182038C07FB1684000DD
:103D4000085A28812078401E28706178A0684018A1
:103D50002038C07FF1684000085A28826078401EF1
:103D60002871607821784843E1684000801E085A35
:103D7000288387E7F0B593B01D461446199B189A1F
:103D800000930BAF03AE1346029701962A4609B281
:103D900000B2FFF78FFD10AA0421515E6A4624206D
:103DA000105E604300F002FB13B0F0BD70B5144626
:103DB0000246049D891A181BAA1A504300F0F6FA0D
:103DC000001970BDFFB593B014460E4607460BAA06
:103DD00003A91C9D1D980292019100902B4631B2BF
:103DE00038B2169AFFF766FD009701966978A868C1
:103DF00041182039C97F00784A0016994000C968E7
:103E00008B5A0A5A29786868169D41182039C97F4B
:103E1000AD68007849004000695A285AFFF731FD23
:103E200001283FD0032804D0052802D0072839D024
:103E3000FEE76A463C20105E009024252623555F4D
:103E40001E211C20D35E515E105E2A46FFF7AEFF96
:103E500005466A463E20105E009024272623D75F41
:103E60001E211C20D35E515E105E3A46FFF79EFF76
:103E700003466A463C20105EB04205D110A80421DA
:103E8000415E2046684308E03E20105EB04208D103
:103E900010A80621415E2046584300F087FA17B06B
:103EA000F0BDFEE76A463420105E009024252623EC
:103EB000555F16211420D35E515E105E2A46FFF72F
:103EC00075FF05466A463620105E0090242626239C
:103ED000965F16211420D35E515E105E3246FFF7C6
:103EE00065FF03466A463420105EB842C6D03620CD
:103EF000105EB842CCD0FEE7FFB59DB01A462798B9
:103F000013AD0BAC269B6F4631C71D980E4609B208
:103F100000B2FFF7CFFC20220BA903A8FCF78AFB15
:103F2000002003AA41000B194F191B8B3F8B8918E6
:103F3000DB1B401CC0B20B830428F3D31BAB3246FF
:103F400003A81D99FFF76EFC1B991F9821B0081854
:103F5000F0BDF7B586B015460646002778008419EF
:103F6000049010210820615E205E01910090697824
:103F7000A8686B6841182039C97F00784A00079902
:103F80004000C9688A5A94460A5A28781818203876
:103F9000C07F1B78410007985B008068415AC05A77
:103FA0006346FFF76EFC030000F0F7FA09301230A9
:103FB00012061230123020000196009518221021AE
:103FC0000820A25E615E205E079BFFF795FF0AE076
:103FD00001960095182210210820A25E615E205EE5
:103FE000079BFFF7EFFE049902AA50527F1CFFB215
:103FF000042FB3D3002002AA4100535A8919401C50
:10400000C0B20B830428F7D309B0F0BD0196009528
:10401000182210210820A25E615E205E079BFFF738
:10402000A9FEE0E7FFB583B000271179FF43002028
:104030000091491E1D46144601910EE0A6684300FA
:10404000F25A03998A4205DC9B1CF25A8A4201DB30
:1040500047B200980199401CC0B28142EEDC0026B4
:104060006179F64300200091491E029111E0E36856
:1040700042000193995A049B994207DC019B921CD0
:104080009B5A049A934201DB46B200980299401C65
:10409000C0B28142EBDA0020791C0BD0C107C90FF6
:1040A000C919C9B2A2684B00D25A43005B191A81E0
:1040B0008E462954711C0DD08107C90F8919CAB2C7
:1040C0009446E36852009A5A43005B191A8262468A
:1040D0002B181A71791C0BD0711C09D022796146FA
:1040E0004A437244236952009A5A43005B191A8367
:1040F000401CC0B20428CFD30499039801910090CA
:104100006079E2684000801E2179135A4900A06856
:10411000891E415A12880088FFF7B3FB030000F0A4
:104120003CFA0906411E06411E06411E41000021BF
:10413000A9812981A26803281288EA816A81E9702D
:1041400069702FD12179226971434900515A6983DD
:1041500029832179761C7143490022691FE0217966
:10416000A2684900891E515AA98129812188491EC6
:10417000E98169812179491EA9702970052811D129
:104180002179731C594349002269891E515A698358
:1041900029832179B61C714349002269891E515A2D
:1041A000E983A983030000F0F8F9090606063D3DFE
:1041B0003D1717173D00002169822982E268012816
:1041C0001288EA82AA82E971A9712BD12269790049
:1041D000525AAA832A8320E06179E2684900891E45
:1041E000515A698229826188491EE982A9826179CE
:1041F000491E69712971072814D162792179521EEB
:104200005143C91922694900515AA9832983627906
:104210002179521E5143C91949002269891C515AFA
:10422000E98369830021C943002806D0022808D009
:1042300006280AD008280FD11AE020690021415E23
:104240000AE020792169400017E061792079491E50
:10425000484321694000095E481C07D00020420005
:104260005219401CC0B211830428F8D307B0F0BD26
:1042700020796179484321694000801EEBE770B5E1
:104280008AB016460C4605466B460C4A09B200B287
:10429000FFF7C8FE094A094914326846FFF759FE7C
:1042A00008AB224629466846FFF7BCFA044808993D
:1042B000808E704300F07AF80AB070BD280C0000C0
:1042C00048020000F8B5042A2CD3830712D00B78DB
:1042D000491C0370401C521E83070BD00B78491CED
:1042E0000370401C521E830704D00B78491C0370D6
:1042F000401C521E8B079B0F05D0C91ADF002023DC
:10430000DE1B08C90AE0FCF795F9F8BD1D4608C98F
:10431000FD401C46B4402C4310C0121F042AF5D2A5
:10432000F308C91A521EF0D40B78491C0370401CC4
:10433000521EEAD40B78491C0370401C012AE4D4B5
:1043400009780170F8BDD2B210B513029A1813049F
:104350009A1800F00EF810BD01E004C0091F0429EE
:10436000FBD28B0701D50280801CC90700D00270E8
:10437000704700290BD0C30702D00270401C491EB1
:10438000022904D3830702D50280801C891EE3E73B
:104390000022EEE70022DFE7002203098B422CD344
:1043A000030A8B4211D300239C464EE003460B4385
:1043B0003CD4002243088B4231D303098B421CD3E7
:1043C000030A8B4201D394463FE0C3098B4201D3D9
:1043D000CB01C01A524183098B4201D38B01C01A11
:1043E000524143098B4201D34B01C01A5241030988
:1043F0008B4201D30B01C01A5241C3088B4201D337
:10440000CB00C01A524183088B4201D38B00C01AE3
:10441000524143088B4201D34B00C01A5241411A0A
:1044200000D201465241104670475DE0CA0F00D0ED
:104430004942031000D34042534000229C460309E6
:104440008B422DD3030A8B4212D3FC22890112BA6C
:10445000030A8B420CD3890192118B4208D3890144
:1044600092118B4204D389013AD0921100E089095C
:10447000C3098B4201D3CB01C01A524183098B423D
:1044800001D38B01C01A524143098B4201D34B0126
:10449000C01A524103098B4201D30B01C01A524189
:1044A000C3088B4201D3CB00C01A524183088B4210
:1044B00001D38B00C01A5241D9D243088B4201D399
:1044C0004B00C01A5241411A00D201466346524184
:1044D0005B10104601D34042002B00D54942704783
:1044E00063465B1000D3404201B50020C046C04681
:1044F00002BD754600F022F8AE46050069465346F7
:10450000C008C000854618B020B5FDF7D5F960BCDD
:1045100000274908B6460026C0C5C0C5C0C5C0C5ED
:10452000C0C5C0C5C0C5C0C5403D49008D46704727
:104530000446C046C0462046FCF713F800487047C2
:104540006C0C000070B58C180578401C6B075B0F75
:1045500001D10378401C2A1106D10278401C03E0E7
:104560000678401C0E70491C5B1EF9D12B0705D440
:104570000023521E0DD40B70491CFAE70378401C2F
:10458000CB1A921C03E01D780D70491C5B1C521E57
:10459000F9D5A142D8D3002070BD30B47446641E52
:1045A0002578641CAB4200D21D46635D5B00E318B6
:1045B00030BC18471C0000000C0000000000000088
:1045C00000000000000000001C000000940000003B
:1045D0000000000050030000000200000000000086
:1045E00000000000030000000000000001000000C7
:1045F00002000000000000000000000000000000B9
:10460000140000000000000234000000000000035D
:104610003500000000000004360000000000000526
:10462000370000000F00010001000100010001003F
:104630000100010001000100010001000100010072
:1046400001000100000040003800080020002000A8
:10465000280018001E006400100000000400000084
:10466000FFFFFFFFFFFFFFFFFFFFFFFF0000000056
:104670000000000000000000FFFF1F00000000001D
:10468000FFFFFFFFFFFFFFFFFFFFFFFF0000000036
:104690000000000000000000918C0A006E7305000D
:1046A000FFFFFFFFFFFFFFFFFFFFFFFF0000000016
:1046B00000000000000000006E730500918C0A00ED
:1046C000000000000040070500000000001000008E
:1046D0005D46001060460010010200005D460010BB
:1046E00080460010011200005D460010A046001038
:1046F00001130000284700103C4700100300000091
:1047000000FF07075C4700100104040022F20000CC
:1047100072011000CDCDCDCD060000008D470010F8
:104720009047001001080000040200060B0C070E61
:1047300013090F120A10111F1F1F1F1F001F1F1F19
:104740001F1F1F1F1F1F1F1F1F1F1F1F1F1F1F1F79
:104750001F1F1F1F1F1F1F1F1F1F1F1F010101FFE3
:10476000FF01FFFF010101FFFF0101FF010101FF47
:10477000FFFF01FF010101FFFFFF01FF0101010137
:10478000FFFF01FF01010101FFFF01FF0100000028
:10479000000000000000000000000000390074006C
:1047A000B200F20032017101B201F0012F026E027B
:1047B000AC02ED022C036B03AA03ED034700820059
:1047C000C100010141018201C201010240028002D7
:1047D000C002000343038403C403040446048604A4
:1047E000C604080550058505C505040644068E0661
:1047F000C706070747074102B60225037F03BC032C
:10480000E903170447046304650478046E043E0456
:10481000FD03AB0322039E025503F3038004E3046C
:1048200032058405BB05E00509061C060506C5051D
:104830006705D8040F04FF02D203A4044F05DE0568
:104840005206BD060C074A07870799077B072D0705
:104850009E06DD05E3047B0362045F052A06EB0682
:104860007907F7075808C40800091709FF08A808BE
:10487000ED07FE06C305FF03010519060807C90772
:1048800074080B099409030A660A940A6F0A050A58
:1048900035091D08A1069004A705C706C707A90882
:1048A00068091C0AB80A300B9B0BBE0B9B0B290B2B
:1048B0005D0A1A09890713052A065B077C08850922
:1048C000730A370BC00B320C8D0CAC0C880C0C0C23
:1048D000480B060A470874058C06E4072F097B0A73
:1048E0007B0B470CCF0C200D620D540D330DB80C13
:1048F000EC0BB30AF808D8051C078B08F709520B14
:10490000550C280DAD0DF50D190E150ECD0D580DCC
:10491000840C530B930945069B071F09C10A200C01
:10492000300DFE0D880EDC0EFA0EDF0E9E0E060E0A
:10493000270DED0B360AA2062208D709790BD30CF6
:10494000FF0DD60E790FCE0FF90FDE0F760FC20EC8
:10495000DB0D970CCA0A0C0796085A0A0B0C800D3F
:10496000BD0EBA0F6F10D210FE10D6105B108F0F55
:104970007C0E0F0D2A0B5707F608D70A9F0C290E3D
:104980006E0F85105511CC11E411AE1117113110B5
:10499000FA0E5E0D610B93074809470B170DBC0E0D
:1049A0002510481128129012AC125212A511A41011
:1049B0004B0F7D0D590BAE078D099F0B6A0D230F11
:1049C000A010CE11AE12131301138E12BD1191104F
:1049D000010F2C0D000BAA078C09B20B920D450F8D
:1049E000CB100A12CF121613EF125B127311301094
:1049F000980EC70C890A97079809990B810D360FF5
:104A0000C210F111AE12E3129A12FC110011A80F9C
:104A1000060E290CF4096B075309570B320DDC0EF7
:104A200063107F11431255120D1262115110040FC1
:104A3000640D910B650933070A09FD0ACF0C7B0E43
:104A4000E40FFD10A111C1117011BD10B50F650E5D
:104A5000C70CFD0AF2081A07E008BF0A960C270ED9
:104A6000760F7510F7101811CE101F101A0FD40DF5
:104A7000560C8D0A7F081907C908A10A550CCA0DE2
:104A8000130FE60F4B105B101210790F8F0E660D8F
:104A9000F40B3A0A3508FE06B908870A2E0C920D67
:104AA000B70E780FE30FE00F910F050F240E080DDE
:104AB000A60B040A20080507BA08750AED0B460D77
:104AC0004F0E0F0F610F6B0F180F970EC50DBD0C1A
:104AD000870BDE090708F4068F08210A950BDB0C0B
:104AE000D40D780EBF0EC90E890E0B0E640D690C25
:104AF000280B9D09D007AE063408A409EF0A110C53
:104B0000EF0C930DE00DD40DA80D580DBF0CEB0B61
:104B1000BE0A380975074406AB07FC08150A100BD6
:104B2000D80B550C990CAF0C8F0C570CE30B1F0BCB
:104B3000FE09A508F706AB05EA060608EE08C10956
:104B4000500AC10A0A0B0C0B080BD70A790ADF09B5
:104B5000F008B1074706750413067B076108E808EB
:104B60004D099109A809A1099A093109DD080D0823
:104B70004C07E90577044C03560439051306BE06B5
:104B80001107210748076E078107470718077606B0
:104B9000BE05C704A70302070D02080E141A000081
:104BA000F04B0010C00000005C0000001005001079
:104BB0004C4C001000020000DC000000100500104A
:104BC000284D001000050000B8000000100500107E
:104BD000284D0010DC020000A80000002C05001089
:104BE000E04D0010B8050000140700002C0500106F
:104BF00030B50123512424062360114A401C13D0F0
:104C0000106A08252843106230BF106A000C0004A7
:104C10001062002020600B48416181610721016121
:104C200090681843906030BD0920116A01431162F9
:104C3000FBE700BF704700200349C043C8627047CC
:104C40000000005200E000E0C00000500000000042
:104C500000780A0001013804800700005A5A5A5AA5
:104C60005A5A5A5A5A5A5A5A0000000001011F074C
:104C7000050301000100010001000606060690017F
:104C8000900158025802C800010000000100000015
:104C900000000100E8033200500008281E009600C2
:104CA00060F0FFFF9CFF60F03C001E4040000000F1
:104CB00000000000000000000000000000000101F2
:104CC0000000000000000F0068A6000000000000C7
:104CD00000000000000000000000000000000000D4
:104CE00000000000000000000000000000000000C4
:104CF00000000000000000000000000000000000B4
:104D000000000000000000000000000000000000A3
:104D10000000000000000000000000000000000093
:104D20000000000000000000000000000000000083
:104D30000000000000000000000000000000000073
:104D400004020000000000003C020000000000001F
:104D50000000000000000000000000000000000053
:104D60000000000000000000200200000000000021
:104D700048020000000000000000000000000000E9
:104D80000000000000000000000000000000000023
:104D90000000000000000000000000000000000013
:104DA0000000000000000000000000000000000003
:104DB00000000000000000000000000000000000F3
:104DC0000000000000000000010000000001030AD4
:104DD000040140018001000006061100C00B000024
:00000001FF
